{
	"scripts/advancedsolidity.sol": {
		"TodoList": {
			"abi": [
				{
					"inputs": [
						{
							"internalType": "string",
							"name": "_text",
							"type": "string"
						}
					],
					"name": "createTodo",
					"outputs": [],
					"stateMutability": "nonpayable",
					"type": "function"
				},
				{
					"inputs": [
						{
							"internalType": "uint256",
							"name": "",
							"type": "uint256"
						}
					],
					"name": "todos",
					"outputs": [
						{
							"internalType": "string",
							"name": "text",
							"type": "string"
						},
						{
							"internalType": "bool",
							"name": "completed",
							"type": "bool"
						}
					],
					"stateMutability": "view",
					"type": "function"
				},
				{
					"inputs": [
						{
							"internalType": "uint256",
							"name": "_index",
							"type": "uint256"
						}
					],
					"name": "toggleCompleted",
					"outputs": [],
					"stateMutability": "nonpayable",
					"type": "function"
				},
				{
					"inputs": [
						{
							"internalType": "uint256",
							"name": "_index",
							"type": "uint256"
						},
						{
							"internalType": "string",
							"name": "_text",
							"type": "string"
						}
					],
					"name": "update",
					"outputs": [],
					"stateMutability": "nonpayable",
					"type": "function"
				}
			],
			"devdoc": {
				"kind": "dev",
				"methods": {},
				"version": 1
			},
			"evm": {
				"assembly": "    /* \"scripts/advancedsolidity.sol\":61:1119  contract TodoList {... */\n  mstore(0x40, 0x80)\n  callvalue\n  dup1\n  iszero\n  tag_1\n  jumpi\n  0x00\n  dup1\n  revert\ntag_1:\n  pop\n  dataSize(sub_0)\n  dup1\n  dataOffset(sub_0)\n  0x00\n  codecopy\n  0x00\n  return\nstop\n\nsub_0: assembly {\n        /* \"scripts/advancedsolidity.sol\":61:1119  contract TodoList {... */\n      mstore(0x40, 0x80)\n      callvalue\n      dup1\n      iszero\n      tag_1\n      jumpi\n      0x00\n      dup1\n      revert\n    tag_1:\n      pop\n      jumpi(tag_2, lt(calldatasize, 0x04))\n      shr(0xe0, calldataload(0x00))\n      dup1\n      0x455f5024\n      eq\n      tag_3\n      jumpi\n      dup1\n      0xbc8bc2b4\n      eq\n      tag_4\n      jumpi\n      dup1\n      0xe34f1221\n      eq\n      tag_5\n      jumpi\n      dup1\n      0xf745630f\n      eq\n      tag_6\n      jumpi\n    tag_2:\n      0x00\n      dup1\n      revert\n        /* \"scripts/advancedsolidity.sol\":1002:1116  function toggleCompleted(uint _index) public {... */\n    tag_3:\n      tag_7\n      0x04\n      dup1\n      calldatasize\n      sub\n      dup2\n      add\n      swap1\n      tag_8\n      swap2\n      swap1\n      tag_9\n      jump\t// in\n    tag_8:\n      tag_10\n      jump\t// in\n    tag_7:\n      stop\n        /* \"scripts/advancedsolidity.sol\":271:294  TodoItem[] public todos */\n    tag_4:\n      tag_11\n      0x04\n      dup1\n      calldatasize\n      sub\n      dup2\n      add\n      swap1\n      tag_12\n      swap2\n      swap1\n      tag_9\n      jump\t// in\n    tag_12:\n      tag_13\n      jump\t// in\n    tag_11:\n      mload(0x40)\n      tag_14\n      swap3\n      swap2\n      swap1\n      tag_15\n      jump\t// in\n    tag_14:\n      mload(0x40)\n      dup1\n      swap2\n      sub\n      swap1\n      return\n        /* \"scripts/advancedsolidity.sol\":303:829  function createTodo(string memory _text) public {... */\n    tag_5:\n      tag_16\n      0x04\n      dup1\n      calldatasize\n      sub\n      dup2\n      add\n      swap1\n      tag_17\n      swap2\n      swap1\n      tag_18\n      jump\t// in\n    tag_17:\n      tag_19\n      jump\t// in\n    tag_16:\n      stop\n        /* \"scripts/advancedsolidity.sol\":867:969  function update(uint _index, string memory _text) public {... */\n    tag_6:\n      tag_20\n      0x04\n      dup1\n      calldatasize\n      sub\n      dup2\n      add\n      swap1\n      tag_21\n      swap2\n      swap1\n      tag_22\n      jump\t// in\n    tag_21:\n      tag_23\n      jump\t// in\n    tag_20:\n      stop\n        /* \"scripts/advancedsolidity.sol\":1002:1116  function toggleCompleted(uint _index) public {... */\n    tag_10:\n        /* \"scripts/advancedsolidity.sol\":1085:1090  todos */\n      0x00\n        /* \"scripts/advancedsolidity.sol\":1091:1097  _index */\n      dup2\n        /* \"scripts/advancedsolidity.sol\":1085:1098  todos[_index] */\n      dup2\n      sload\n      dup2\n      lt\n      tag_25\n      jumpi\n      tag_26\n      tag_27\n      jump\t// in\n    tag_26:\n    tag_25:\n      swap1\n      0x00\n      mstore\n      keccak256(0x00, 0x20)\n      swap1\n      0x02\n      mul\n      add\n        /* \"scripts/advancedsolidity.sol\":1085:1108  todos[_index].completed */\n      0x01\n      add\n      0x00\n      swap1\n      sload\n      swap1\n      0x0100\n      exp\n      swap1\n      div\n      0xff\n      and\n        /* \"scripts/advancedsolidity.sol\":1084:1108  !todos[_index].completed */\n      iszero\n        /* \"scripts/advancedsolidity.sol\":1058:1063  todos */\n      0x00\n        /* \"scripts/advancedsolidity.sol\":1064:1070  _index */\n      dup3\n        /* \"scripts/advancedsolidity.sol\":1058:1071  todos[_index] */\n      dup2\n      sload\n      dup2\n      lt\n      tag_29\n      jumpi\n      tag_30\n      tag_27\n      jump\t// in\n    tag_30:\n    tag_29:\n      swap1\n      0x00\n      mstore\n      keccak256(0x00, 0x20)\n      swap1\n      0x02\n      mul\n      add\n        /* \"scripts/advancedsolidity.sol\":1058:1081  todos[_index].completed */\n      0x01\n      add\n      0x00\n        /* \"scripts/advancedsolidity.sol\":1058:1108  todos[_index].completed = !todos[_index].completed */\n      0x0100\n      exp\n      dup2\n      sload\n      dup2\n      0xff\n      mul\n      not\n      and\n      swap1\n      dup4\n      iszero\n      iszero\n      mul\n      or\n      swap1\n      sstore\n      pop\n        /* \"scripts/advancedsolidity.sol\":1002:1116  function toggleCompleted(uint _index) public {... */\n      pop\n      jump\t// out\n        /* \"scripts/advancedsolidity.sol\":271:294  TodoItem[] public todos */\n    tag_13:\n      0x00\n      dup2\n      dup2\n      sload\n      dup2\n      lt\n      tag_32\n      jumpi\n      0x00\n      dup1\n      revert\n    tag_32:\n      swap1\n      0x00\n      mstore\n      keccak256(0x00, 0x20)\n      swap1\n      0x02\n      mul\n      add\n      0x00\n      swap2\n      pop\n      swap1\n      pop\n      dup1\n      0x00\n      add\n      dup1\n      sload\n      tag_34\n      swap1\n      tag_35\n      jump\t// in\n    tag_34:\n      dup1\n      0x1f\n      add\n      0x20\n      dup1\n      swap2\n      div\n      mul\n      0x20\n      add\n      mload(0x40)\n      swap1\n      dup2\n      add\n      0x40\n      mstore\n      dup1\n      swap3\n      swap2\n      swap1\n      dup2\n      dup2\n      mstore\n      0x20\n      add\n      dup3\n      dup1\n      sload\n      tag_36\n      swap1\n      tag_35\n      jump\t// in\n    tag_36:\n      dup1\n      iszero\n      tag_37\n      jumpi\n      dup1\n      0x1f\n      lt\n      tag_38\n      jumpi\n      0x0100\n      dup1\n      dup4\n      sload\n      div\n      mul\n      dup4\n      mstore\n      swap2\n      0x20\n      add\n      swap2\n      jump(tag_37)\n    tag_38:\n      dup3\n      add\n      swap2\n      swap1\n      0x00\n      mstore\n      keccak256(0x00, 0x20)\n      swap1\n    tag_39:\n      dup2\n      sload\n      dup2\n      mstore\n      swap1\n      0x01\n      add\n      swap1\n      0x20\n      add\n      dup1\n      dup4\n      gt\n      tag_39\n      jumpi\n      dup3\n      swap1\n      sub\n      0x1f\n      and\n      dup3\n      add\n      swap2\n    tag_37:\n      pop\n      pop\n      pop\n      pop\n      pop\n      swap1\n      dup1\n      0x01\n      add\n      0x00\n      swap1\n      sload\n      swap1\n      0x0100\n      exp\n      swap1\n      div\n      0xff\n      and\n      swap1\n      pop\n      dup3\n      jump\t// out\n        /* \"scripts/advancedsolidity.sol\":303:829  function createTodo(string memory _text) public {... */\n    tag_19:\n        /* \"scripts/advancedsolidity.sol\":469:474  todos */\n      0x00\n        /* \"scripts/advancedsolidity.sol\":480:502  TodoItem(_text, false) */\n      mload(0x40)\n      dup1\n      0x40\n      add\n      0x40\n      mstore\n      dup1\n        /* \"scripts/advancedsolidity.sol\":489:494  _text */\n      dup4\n        /* \"scripts/advancedsolidity.sol\":480:502  TodoItem(_text, false) */\n      dup2\n      mstore\n      0x20\n      add\n        /* \"scripts/advancedsolidity.sol\":496:501  false */\n      0x00\n        /* \"scripts/advancedsolidity.sol\":480:502  TodoItem(_text, false) */\n      iszero\n      iszero\n      dup2\n      mstore\n      pop\n        /* \"scripts/advancedsolidity.sol\":469:503  todos.push(TodoItem(_text, false)) */\n      swap1\n      dup1\n      0x01\n      dup2\n      sload\n      add\n      dup1\n      dup3\n      sstore\n      dup1\n      swap2\n      pop\n      pop\n      0x01\n      swap1\n      sub\n      swap1\n      0x00\n      mstore\n      keccak256(0x00, 0x20)\n      swap1\n      0x02\n      mul\n      add\n      0x00\n      swap1\n      swap2\n      swap1\n      swap2\n      swap1\n      swap2\n      pop\n      0x00\n      dup3\n      add\n      mload\n      dup2\n      0x00\n      add\n      swap1\n      dup2\n      tag_42\n      swap2\n      swap1\n      tag_43\n      jump\t// in\n    tag_42:\n      pop\n      0x20\n      dup3\n      add\n      mload\n      dup2\n      0x01\n      add\n      exp(0x0100, 0x00)\n      dup2\n      sload\n      dup2\n      0xff\n      mul\n      not\n      and\n      swap1\n      dup4\n      iszero\n      iszero\n      mul\n      or\n      swap1\n      sstore\n      pop\n      pop\n      pop\n        /* \"scripts/advancedsolidity.sol\":563:568  todos */\n      0x00\n        /* \"scripts/advancedsolidity.sol\":574:617  TodoItem({ text: _text, completed: false }) */\n      mload(0x40)\n      dup1\n      0x40\n      add\n      0x40\n      mstore\n      dup1\n        /* \"scripts/advancedsolidity.sol\":591:596  _text */\n      dup4\n        /* \"scripts/advancedsolidity.sol\":574:617  TodoItem({ text: _text, completed: false }) */\n      dup2\n      mstore\n      0x20\n      add\n        /* \"scripts/advancedsolidity.sol\":609:614  false */\n      0x00\n        /* \"scripts/advancedsolidity.sol\":574:617  TodoItem({ text: _text, completed: false }) */\n      iszero\n      iszero\n      dup2\n      mstore\n      pop\n        /* \"scripts/advancedsolidity.sol\":563:618  todos.push(TodoItem({ text: _text, completed: false })) */\n      swap1\n      dup1\n      0x01\n      dup2\n      sload\n      add\n      dup1\n      dup3\n      sstore\n      dup1\n      swap2\n      pop\n      pop\n      0x01\n      swap1\n      sub\n      swap1\n      0x00\n      mstore\n      keccak256(0x00, 0x20)\n      swap1\n      0x02\n      mul\n      add\n      0x00\n      swap1\n      swap2\n      swap1\n      swap2\n      swap1\n      swap2\n      pop\n      0x00\n      dup3\n      add\n      mload\n      dup2\n      0x00\n      add\n      swap1\n      dup2\n      tag_45\n      swap2\n      swap1\n      tag_43\n      jump\t// in\n    tag_45:\n      pop\n      0x20\n      dup3\n      add\n      mload\n      dup2\n      0x01\n      add\n      exp(0x0100, 0x00)\n      dup2\n      sload\n      dup2\n      0xff\n      mul\n      not\n      and\n      swap1\n      dup4\n      iszero\n      iszero\n      mul\n      or\n      swap1\n      sstore\n      pop\n      pop\n      pop\n        /* \"scripts/advancedsolidity.sol\":713:733  TodoItem memory todo */\n      tag_46\n      tag_47\n      jump\t// in\n    tag_46:\n        /* \"scripts/advancedsolidity.sol\":756:761  _text */\n      dup2\n        /* \"scripts/advancedsolidity.sol\":744:748  todo */\n      dup2\n        /* \"scripts/advancedsolidity.sol\":744:753  todo.text */\n      0x00\n      add\n        /* \"scripts/advancedsolidity.sol\":744:761  todo.text = _text */\n      dup2\n      swap1\n      mstore\n      pop\n        /* \"scripts/advancedsolidity.sol\":789:794  false */\n      0x00\n        /* \"scripts/advancedsolidity.sol\":772:776  todo */\n      dup2\n        /* \"scripts/advancedsolidity.sol\":772:786  todo.completed */\n      0x20\n      add\n        /* \"scripts/advancedsolidity.sol\":772:794  todo.completed = false */\n      swap1\n      iszero\n      iszero\n      swap1\n      dup2\n      iszero\n      iszero\n      dup2\n      mstore\n      pop\n      pop\n        /* \"scripts/advancedsolidity.sol\":805:810  todos */\n      0x00\n        /* \"scripts/advancedsolidity.sol\":816:820  todo */\n      dup2\n        /* \"scripts/advancedsolidity.sol\":805:821  todos.push(todo) */\n      swap1\n      dup1\n      0x01\n      dup2\n      sload\n      add\n      dup1\n      dup3\n      sstore\n      dup1\n      swap2\n      pop\n      pop\n      0x01\n      swap1\n      sub\n      swap1\n      0x00\n      mstore\n      keccak256(0x00, 0x20)\n      swap1\n      0x02\n      mul\n      add\n      0x00\n      swap1\n      swap2\n      swap1\n      swap2\n      swap1\n      swap2\n      pop\n      0x00\n      dup3\n      add\n      mload\n      dup2\n      0x00\n      add\n      swap1\n      dup2\n      tag_49\n      swap2\n      swap1\n      tag_43\n      jump\t// in\n    tag_49:\n      pop\n      0x20\n      dup3\n      add\n      mload\n      dup2\n      0x01\n      add\n      exp(0x0100, 0x00)\n      dup2\n      sload\n      dup2\n      0xff\n      mul\n      not\n      and\n      swap1\n      dup4\n      iszero\n      iszero\n      mul\n      or\n      swap1\n      sstore\n      pop\n      pop\n      pop\n        /* \"scripts/advancedsolidity.sol\":351:829  {... */\n      pop\n        /* \"scripts/advancedsolidity.sol\":303:829  function createTodo(string memory _text) public {... */\n      pop\n      jump\t// out\n        /* \"scripts/advancedsolidity.sol\":867:969  function update(uint _index, string memory _text) public {... */\n    tag_23:\n        /* \"scripts/advancedsolidity.sol\":956:961  _text */\n      dup1\n        /* \"scripts/advancedsolidity.sol\":935:940  todos */\n      0x00\n        /* \"scripts/advancedsolidity.sol\":941:947  _index */\n      dup4\n        /* \"scripts/advancedsolidity.sol\":935:948  todos[_index] */\n      dup2\n      sload\n      dup2\n      lt\n      tag_51\n      jumpi\n      tag_52\n      tag_27\n      jump\t// in\n    tag_52:\n    tag_51:\n      swap1\n      0x00\n      mstore\n      keccak256(0x00, 0x20)\n      swap1\n      0x02\n      mul\n      add\n        /* \"scripts/advancedsolidity.sol\":935:953  todos[_index].text */\n      0x00\n      add\n        /* \"scripts/advancedsolidity.sol\":935:961  todos[_index].text = _text */\n      swap1\n      dup2\n      tag_54\n      swap2\n      swap1\n      tag_43\n      jump\t// in\n    tag_54:\n      pop\n        /* \"scripts/advancedsolidity.sol\":867:969  function update(uint _index, string memory _text) public {... */\n      pop\n      pop\n      jump\t// out\n    tag_47:\n      mload(0x40)\n      dup1\n      0x40\n      add\n      0x40\n      mstore\n      dup1\n      0x60\n      dup2\n      mstore\n      0x20\n      add\n      iszero(iszero(0x00))\n      dup2\n      mstore\n      pop\n      swap1\n      jump\t// out\n        /* \"#utility.yul\":7:82   */\n    tag_55:\n        /* \"#utility.yul\":40:46   */\n      0x00\n        /* \"#utility.yul\":73:75   */\n      0x40\n        /* \"#utility.yul\":67:76   */\n      mload\n        /* \"#utility.yul\":57:76   */\n      swap1\n      pop\n        /* \"#utility.yul\":7:82   */\n      swap1\n      jump\t// out\n        /* \"#utility.yul\":88:205   */\n    tag_56:\n        /* \"#utility.yul\":197:198   */\n      0x00\n        /* \"#utility.yul\":194:195   */\n      dup1\n        /* \"#utility.yul\":187:199   */\n      revert\n        /* \"#utility.yul\":211:328   */\n    tag_57:\n        /* \"#utility.yul\":320:321   */\n      0x00\n        /* \"#utility.yul\":317:318   */\n      dup1\n        /* \"#utility.yul\":310:322   */\n      revert\n        /* \"#utility.yul\":334:411   */\n    tag_58:\n        /* \"#utility.yul\":371:378   */\n      0x00\n        /* \"#utility.yul\":400:405   */\n      dup2\n        /* \"#utility.yul\":389:405   */\n      swap1\n      pop\n        /* \"#utility.yul\":334:411   */\n      swap2\n      swap1\n      pop\n      jump\t// out\n        /* \"#utility.yul\":417:539   */\n    tag_59:\n        /* \"#utility.yul\":490:514   */\n      tag_99\n        /* \"#utility.yul\":508:513   */\n      dup2\n        /* \"#utility.yul\":490:514   */\n      tag_58\n      jump\t// in\n    tag_99:\n        /* \"#utility.yul\":483:488   */\n      dup2\n        /* \"#utility.yul\":480:515   */\n      eq\n        /* \"#utility.yul\":470:533   */\n      tag_100\n      jumpi\n        /* \"#utility.yul\":529:530   */\n      0x00\n        /* \"#utility.yul\":526:527   */\n      dup1\n        /* \"#utility.yul\":519:531   */\n      revert\n        /* \"#utility.yul\":470:533   */\n    tag_100:\n        /* \"#utility.yul\":417:539   */\n      pop\n      jump\t// out\n        /* \"#utility.yul\":545:684   */\n    tag_60:\n        /* \"#utility.yul\":591:596   */\n      0x00\n        /* \"#utility.yul\":629:635   */\n      dup2\n        /* \"#utility.yul\":616:636   */\n      calldataload\n        /* \"#utility.yul\":607:636   */\n      swap1\n      pop\n        /* \"#utility.yul\":645:678   */\n      tag_102\n        /* \"#utility.yul\":672:677   */\n      dup2\n        /* \"#utility.yul\":645:678   */\n      tag_59\n      jump\t// in\n    tag_102:\n        /* \"#utility.yul\":545:684   */\n      swap3\n      swap2\n      pop\n      pop\n      jump\t// out\n        /* \"#utility.yul\":690:1019   */\n    tag_9:\n        /* \"#utility.yul\":749:755   */\n      0x00\n        /* \"#utility.yul\":798:800   */\n      0x20\n        /* \"#utility.yul\":786:795   */\n      dup3\n        /* \"#utility.yul\":777:784   */\n      dup5\n        /* \"#utility.yul\":773:796   */\n      sub\n        /* \"#utility.yul\":769:801   */\n      slt\n        /* \"#utility.yul\":766:885   */\n      iszero\n      tag_104\n      jumpi\n        /* \"#utility.yul\":804:883   */\n      tag_105\n      tag_56\n      jump\t// in\n    tag_105:\n        /* \"#utility.yul\":766:885   */\n    tag_104:\n        /* \"#utility.yul\":924:925   */\n      0x00\n        /* \"#utility.yul\":949:1002   */\n      tag_106\n        /* \"#utility.yul\":994:1001   */\n      dup5\n        /* \"#utility.yul\":985:991   */\n      dup3\n        /* \"#utility.yul\":974:983   */\n      dup6\n        /* \"#utility.yul\":970:992   */\n      add\n        /* \"#utility.yul\":949:1002   */\n      tag_60\n      jump\t// in\n    tag_106:\n        /* \"#utility.yul\":939:1002   */\n      swap2\n      pop\n        /* \"#utility.yul\":895:1012   */\n      pop\n        /* \"#utility.yul\":690:1019   */\n      swap3\n      swap2\n      pop\n      pop\n      jump\t// out\n        /* \"#utility.yul\":1025:1124   */\n    tag_61:\n        /* \"#utility.yul\":1077:1083   */\n      0x00\n        /* \"#utility.yul\":1111:1116   */\n      dup2\n        /* \"#utility.yul\":1105:1117   */\n      mload\n        /* \"#utility.yul\":1095:1117   */\n      swap1\n      pop\n        /* \"#utility.yul\":1025:1124   */\n      swap2\n      swap1\n      pop\n      jump\t// out\n        /* \"#utility.yul\":1130:1299   */\n    tag_62:\n        /* \"#utility.yul\":1214:1225   */\n      0x00\n        /* \"#utility.yul\":1248:1254   */\n      dup3\n        /* \"#utility.yul\":1243:1246   */\n      dup3\n        /* \"#utility.yul\":1236:1255   */\n      mstore\n        /* \"#utility.yul\":1288:1292   */\n      0x20\n        /* \"#utility.yul\":1283:1286   */\n      dup3\n        /* \"#utility.yul\":1279:1293   */\n      add\n        /* \"#utility.yul\":1264:1293   */\n      swap1\n      pop\n        /* \"#utility.yul\":1130:1299   */\n      swap3\n      swap2\n      pop\n      pop\n      jump\t// out\n        /* \"#utility.yul\":1305:1551   */\n    tag_63:\n        /* \"#utility.yul\":1386:1387   */\n      0x00\n        /* \"#utility.yul\":1396:1509   */\n    tag_110:\n        /* \"#utility.yul\":1410:1416   */\n      dup4\n        /* \"#utility.yul\":1407:1408   */\n      dup2\n        /* \"#utility.yul\":1404:1417   */\n      lt\n        /* \"#utility.yul\":1396:1509   */\n      iszero\n      tag_112\n      jumpi\n        /* \"#utility.yul\":1495:1496   */\n      dup1\n        /* \"#utility.yul\":1490:1493   */\n      dup3\n        /* \"#utility.yul\":1486:1497   */\n      add\n        /* \"#utility.yul\":1480:1498   */\n      mload\n        /* \"#utility.yul\":1476:1477   */\n      dup2\n        /* \"#utility.yul\":1471:1474   */\n      dup5\n        /* \"#utility.yul\":1467:1478   */\n      add\n        /* \"#utility.yul\":1460:1499   */\n      mstore\n        /* \"#utility.yul\":1432:1434   */\n      0x20\n        /* \"#utility.yul\":1429:1430   */\n      dup2\n        /* \"#utility.yul\":1425:1435   */\n      add\n        /* \"#utility.yul\":1420:1435   */\n      swap1\n      pop\n        /* \"#utility.yul\":1396:1509   */\n      jump(tag_110)\n    tag_112:\n        /* \"#utility.yul\":1543:1544   */\n      0x00\n        /* \"#utility.yul\":1534:1540   */\n      dup5\n        /* \"#utility.yul\":1529:1532   */\n      dup5\n        /* \"#utility.yul\":1525:1541   */\n      add\n        /* \"#utility.yul\":1518:1545   */\n      mstore\n        /* \"#utility.yul\":1367:1551   */\n      pop\n        /* \"#utility.yul\":1305:1551   */\n      pop\n      pop\n      pop\n      jump\t// out\n        /* \"#utility.yul\":1557:1659   */\n    tag_64:\n        /* \"#utility.yul\":1598:1604   */\n      0x00\n        /* \"#utility.yul\":1649:1651   */\n      0x1f\n        /* \"#utility.yul\":1645:1652   */\n      not\n        /* \"#utility.yul\":1640:1642   */\n      0x1f\n        /* \"#utility.yul\":1633:1638   */\n      dup4\n        /* \"#utility.yul\":1629:1643   */\n      add\n        /* \"#utility.yul\":1625:1653   */\n      and\n        /* \"#utility.yul\":1615:1653   */\n      swap1\n      pop\n        /* \"#utility.yul\":1557:1659   */\n      swap2\n      swap1\n      pop\n      jump\t// out\n        /* \"#utility.yul\":1665:2042   */\n    tag_65:\n        /* \"#utility.yul\":1753:1756   */\n      0x00\n        /* \"#utility.yul\":1781:1820   */\n      tag_115\n        /* \"#utility.yul\":1814:1819   */\n      dup3\n        /* \"#utility.yul\":1781:1820   */\n      tag_61\n      jump\t// in\n    tag_115:\n        /* \"#utility.yul\":1836:1907   */\n      tag_116\n        /* \"#utility.yul\":1900:1906   */\n      dup2\n        /* \"#utility.yul\":1895:1898   */\n      dup6\n        /* \"#utility.yul\":1836:1907   */\n      tag_62\n      jump\t// in\n    tag_116:\n        /* \"#utility.yul\":1829:1907   */\n      swap4\n      pop\n        /* \"#utility.yul\":1916:1981   */\n      tag_117\n        /* \"#utility.yul\":1974:1980   */\n      dup2\n        /* \"#utility.yul\":1969:1972   */\n      dup6\n        /* \"#utility.yul\":1962:1966   */\n      0x20\n        /* \"#utility.yul\":1955:1960   */\n      dup7\n        /* \"#utility.yul\":1951:1967   */\n      add\n        /* \"#utility.yul\":1916:1981   */\n      tag_63\n      jump\t// in\n    tag_117:\n        /* \"#utility.yul\":2006:2035   */\n      tag_118\n        /* \"#utility.yul\":2028:2034   */\n      dup2\n        /* \"#utility.yul\":2006:2035   */\n      tag_64\n      jump\t// in\n    tag_118:\n        /* \"#utility.yul\":2001:2004   */\n      dup5\n        /* \"#utility.yul\":1997:2036   */\n      add\n        /* \"#utility.yul\":1990:2036   */\n      swap2\n      pop\n        /* \"#utility.yul\":1757:2042   */\n      pop\n        /* \"#utility.yul\":1665:2042   */\n      swap3\n      swap2\n      pop\n      pop\n      jump\t// out\n        /* \"#utility.yul\":2048:2138   */\n    tag_66:\n        /* \"#utility.yul\":2082:2089   */\n      0x00\n        /* \"#utility.yul\":2125:2130   */\n      dup2\n        /* \"#utility.yul\":2118:2131   */\n      iszero\n        /* \"#utility.yul\":2111:2132   */\n      iszero\n        /* \"#utility.yul\":2100:2132   */\n      swap1\n      pop\n        /* \"#utility.yul\":2048:2138   */\n      swap2\n      swap1\n      pop\n      jump\t// out\n        /* \"#utility.yul\":2144:2253   */\n    tag_67:\n        /* \"#utility.yul\":2225:2246   */\n      tag_121\n        /* \"#utility.yul\":2240:2245   */\n      dup2\n        /* \"#utility.yul\":2225:2246   */\n      tag_66\n      jump\t// in\n    tag_121:\n        /* \"#utility.yul\":2220:2223   */\n      dup3\n        /* \"#utility.yul\":2213:2247   */\n      mstore\n        /* \"#utility.yul\":2144:2253   */\n      pop\n      pop\n      jump\t// out\n        /* \"#utility.yul\":2259:2670   */\n    tag_15:\n        /* \"#utility.yul\":2394:2398   */\n      0x00\n        /* \"#utility.yul\":2432:2434   */\n      0x40\n        /* \"#utility.yul\":2421:2430   */\n      dup3\n        /* \"#utility.yul\":2417:2435   */\n      add\n        /* \"#utility.yul\":2409:2435   */\n      swap1\n      pop\n        /* \"#utility.yul\":2481:2490   */\n      dup2\n        /* \"#utility.yul\":2475:2479   */\n      dup2\n        /* \"#utility.yul\":2471:2491   */\n      sub\n        /* \"#utility.yul\":2467:2468   */\n      0x00\n        /* \"#utility.yul\":2456:2465   */\n      dup4\n        /* \"#utility.yul\":2452:2469   */\n      add\n        /* \"#utility.yul\":2445:2492   */\n      mstore\n        /* \"#utility.yul\":2509:2587   */\n      tag_123\n        /* \"#utility.yul\":2582:2586   */\n      dup2\n        /* \"#utility.yul\":2573:2579   */\n      dup6\n        /* \"#utility.yul\":2509:2587   */\n      tag_65\n      jump\t// in\n    tag_123:\n        /* \"#utility.yul\":2501:2587   */\n      swap1\n      pop\n        /* \"#utility.yul\":2597:2663   */\n      tag_124\n        /* \"#utility.yul\":2659:2661   */\n      0x20\n        /* \"#utility.yul\":2648:2657   */\n      dup4\n        /* \"#utility.yul\":2644:2662   */\n      add\n        /* \"#utility.yul\":2635:2641   */\n      dup5\n        /* \"#utility.yul\":2597:2663   */\n      tag_67\n      jump\t// in\n    tag_124:\n        /* \"#utility.yul\":2259:2670   */\n      swap4\n      swap3\n      pop\n      pop\n      pop\n      jump\t// out\n        /* \"#utility.yul\":2676:2793   */\n    tag_68:\n        /* \"#utility.yul\":2785:2786   */\n      0x00\n        /* \"#utility.yul\":2782:2783   */\n      dup1\n        /* \"#utility.yul\":2775:2787   */\n      revert\n        /* \"#utility.yul\":2799:2916   */\n    tag_69:\n        /* \"#utility.yul\":2908:2909   */\n      0x00\n        /* \"#utility.yul\":2905:2906   */\n      dup1\n        /* \"#utility.yul\":2898:2910   */\n      revert\n        /* \"#utility.yul\":2922:3102   */\n    tag_70:\n        /* \"#utility.yul\":2970:3047   */\n      0x4e487b7100000000000000000000000000000000000000000000000000000000\n        /* \"#utility.yul\":2967:2968   */\n      0x00\n        /* \"#utility.yul\":2960:3048   */\n      mstore\n        /* \"#utility.yul\":3067:3071   */\n      0x41\n        /* \"#utility.yul\":3064:3065   */\n      0x04\n        /* \"#utility.yul\":3057:3072   */\n      mstore\n        /* \"#utility.yul\":3091:3095   */\n      0x24\n        /* \"#utility.yul\":3088:3089   */\n      0x00\n        /* \"#utility.yul\":3081:3096   */\n      revert\n        /* \"#utility.yul\":3108:3389   */\n    tag_71:\n        /* \"#utility.yul\":3191:3218   */\n      tag_129\n        /* \"#utility.yul\":3213:3217   */\n      dup3\n        /* \"#utility.yul\":3191:3218   */\n      tag_64\n      jump\t// in\n    tag_129:\n        /* \"#utility.yul\":3183:3189   */\n      dup2\n        /* \"#utility.yul\":3179:3219   */\n      add\n        /* \"#utility.yul\":3321:3327   */\n      dup2\n        /* \"#utility.yul\":3309:3319   */\n      dup2\n        /* \"#utility.yul\":3306:3328   */\n      lt\n        /* \"#utility.yul\":3285:3303   */\n      0xffffffffffffffff\n        /* \"#utility.yul\":3273:3283   */\n      dup3\n        /* \"#utility.yul\":3270:3304   */\n      gt\n        /* \"#utility.yul\":3267:3329   */\n      or\n        /* \"#utility.yul\":3264:3352   */\n      iszero\n      tag_130\n      jumpi\n        /* \"#utility.yul\":3332:3350   */\n      tag_131\n      tag_70\n      jump\t// in\n    tag_131:\n        /* \"#utility.yul\":3264:3352   */\n    tag_130:\n        /* \"#utility.yul\":3372:3382   */\n      dup1\n        /* \"#utility.yul\":3368:3370   */\n      0x40\n        /* \"#utility.yul\":3361:3383   */\n      mstore\n        /* \"#utility.yul\":3151:3389   */\n      pop\n        /* \"#utility.yul\":3108:3389   */\n      pop\n      pop\n      jump\t// out\n        /* \"#utility.yul\":3395:3524   */\n    tag_72:\n        /* \"#utility.yul\":3429:3435   */\n      0x00\n        /* \"#utility.yul\":3456:3476   */\n      tag_133\n      tag_55\n      jump\t// in\n    tag_133:\n        /* \"#utility.yul\":3446:3476   */\n      swap1\n      pop\n        /* \"#utility.yul\":3485:3518   */\n      tag_134\n        /* \"#utility.yul\":3513:3517   */\n      dup3\n        /* \"#utility.yul\":3505:3511   */\n      dup3\n        /* \"#utility.yul\":3485:3518   */\n      tag_71\n      jump\t// in\n    tag_134:\n        /* \"#utility.yul\":3395:3524   */\n      swap2\n      swap1\n      pop\n      jump\t// out\n        /* \"#utility.yul\":3530:3838   */\n    tag_73:\n        /* \"#utility.yul\":3592:3596   */\n      0x00\n        /* \"#utility.yul\":3682:3700   */\n      0xffffffffffffffff\n        /* \"#utility.yul\":3674:3680   */\n      dup3\n        /* \"#utility.yul\":3671:3701   */\n      gt\n        /* \"#utility.yul\":3668:3724   */\n      iszero\n      tag_136\n      jumpi\n        /* \"#utility.yul\":3704:3722   */\n      tag_137\n      tag_70\n      jump\t// in\n    tag_137:\n        /* \"#utility.yul\":3668:3724   */\n    tag_136:\n        /* \"#utility.yul\":3742:3771   */\n      tag_138\n        /* \"#utility.yul\":3764:3770   */\n      dup3\n        /* \"#utility.yul\":3742:3771   */\n      tag_64\n      jump\t// in\n    tag_138:\n        /* \"#utility.yul\":3734:3771   */\n      swap1\n      pop\n        /* \"#utility.yul\":3826:3830   */\n      0x20\n        /* \"#utility.yul\":3820:3824   */\n      dup2\n        /* \"#utility.yul\":3816:3831   */\n      add\n        /* \"#utility.yul\":3808:3831   */\n      swap1\n      pop\n        /* \"#utility.yul\":3530:3838   */\n      swap2\n      swap1\n      pop\n      jump\t// out\n        /* \"#utility.yul\":3844:3990   */\n    tag_74:\n        /* \"#utility.yul\":3941:3947   */\n      dup3\n        /* \"#utility.yul\":3936:3939   */\n      dup2\n        /* \"#utility.yul\":3931:3934   */\n      dup4\n        /* \"#utility.yul\":3918:3948   */\n      calldatacopy\n        /* \"#utility.yul\":3982:3983   */\n      0x00\n        /* \"#utility.yul\":3973:3979   */\n      dup4\n        /* \"#utility.yul\":3968:3971   */\n      dup4\n        /* \"#utility.yul\":3964:3980   */\n      add\n        /* \"#utility.yul\":3957:3984   */\n      mstore\n        /* \"#utility.yul\":3844:3990   */\n      pop\n      pop\n      pop\n      jump\t// out\n        /* \"#utility.yul\":3996:4421   */\n    tag_75:\n        /* \"#utility.yul\":4074:4079   */\n      0x00\n        /* \"#utility.yul\":4099:4165   */\n      tag_141\n        /* \"#utility.yul\":4115:4164   */\n      tag_142\n        /* \"#utility.yul\":4157:4163   */\n      dup5\n        /* \"#utility.yul\":4115:4164   */\n      tag_73\n      jump\t// in\n    tag_142:\n        /* \"#utility.yul\":4099:4165   */\n      tag_72\n      jump\t// in\n    tag_141:\n        /* \"#utility.yul\":4090:4165   */\n      swap1\n      pop\n        /* \"#utility.yul\":4188:4194   */\n      dup3\n        /* \"#utility.yul\":4181:4186   */\n      dup2\n        /* \"#utility.yul\":4174:4195   */\n      mstore\n        /* \"#utility.yul\":4226:4230   */\n      0x20\n        /* \"#utility.yul\":4219:4224   */\n      dup2\n        /* \"#utility.yul\":4215:4231   */\n      add\n        /* \"#utility.yul\":4264:4267   */\n      dup5\n        /* \"#utility.yul\":4255:4261   */\n      dup5\n        /* \"#utility.yul\":4250:4253   */\n      dup5\n        /* \"#utility.yul\":4246:4262   */\n      add\n        /* \"#utility.yul\":4243:4268   */\n      gt\n        /* \"#utility.yul\":4240:4352   */\n      iszero\n      tag_143\n      jumpi\n        /* \"#utility.yul\":4271:4350   */\n      tag_144\n      tag_69\n      jump\t// in\n    tag_144:\n        /* \"#utility.yul\":4240:4352   */\n    tag_143:\n        /* \"#utility.yul\":4361:4415   */\n      tag_145\n        /* \"#utility.yul\":4408:4414   */\n      dup5\n        /* \"#utility.yul\":4403:4406   */\n      dup3\n        /* \"#utility.yul\":4398:4401   */\n      dup6\n        /* \"#utility.yul\":4361:4415   */\n      tag_74\n      jump\t// in\n    tag_145:\n        /* \"#utility.yul\":4080:4421   */\n      pop\n        /* \"#utility.yul\":3996:4421   */\n      swap4\n      swap3\n      pop\n      pop\n      pop\n      jump\t// out\n        /* \"#utility.yul\":4441:4781   */\n    tag_76:\n        /* \"#utility.yul\":4497:4502   */\n      0x00\n        /* \"#utility.yul\":4546:4549   */\n      dup3\n        /* \"#utility.yul\":4539:4543   */\n      0x1f\n        /* \"#utility.yul\":4531:4537   */\n      dup4\n        /* \"#utility.yul\":4527:4544   */\n      add\n        /* \"#utility.yul\":4523:4550   */\n      slt\n        /* \"#utility.yul\":4513:4635   */\n      tag_147\n      jumpi\n        /* \"#utility.yul\":4554:4633   */\n      tag_148\n      tag_68\n      jump\t// in\n    tag_148:\n        /* \"#utility.yul\":4513:4635   */\n    tag_147:\n        /* \"#utility.yul\":4671:4677   */\n      dup2\n        /* \"#utility.yul\":4658:4678   */\n      calldataload\n        /* \"#utility.yul\":4696:4775   */\n      tag_149\n        /* \"#utility.yul\":4771:4774   */\n      dup5\n        /* \"#utility.yul\":4763:4769   */\n      dup3\n        /* \"#utility.yul\":4756:4760   */\n      0x20\n        /* \"#utility.yul\":4748:4754   */\n      dup7\n        /* \"#utility.yul\":4744:4761   */\n      add\n        /* \"#utility.yul\":4696:4775   */\n      tag_75\n      jump\t// in\n    tag_149:\n        /* \"#utility.yul\":4687:4775   */\n      swap2\n      pop\n        /* \"#utility.yul\":4503:4781   */\n      pop\n        /* \"#utility.yul\":4441:4781   */\n      swap3\n      swap2\n      pop\n      pop\n      jump\t// out\n        /* \"#utility.yul\":4787:5296   */\n    tag_18:\n        /* \"#utility.yul\":4856:4862   */\n      0x00\n        /* \"#utility.yul\":4905:4907   */\n      0x20\n        /* \"#utility.yul\":4893:4902   */\n      dup3\n        /* \"#utility.yul\":4884:4891   */\n      dup5\n        /* \"#utility.yul\":4880:4903   */\n      sub\n        /* \"#utility.yul\":4876:4908   */\n      slt\n        /* \"#utility.yul\":4873:4992   */\n      iszero\n      tag_151\n      jumpi\n        /* \"#utility.yul\":4911:4990   */\n      tag_152\n      tag_56\n      jump\t// in\n    tag_152:\n        /* \"#utility.yul\":4873:4992   */\n    tag_151:\n        /* \"#utility.yul\":5059:5060   */\n      0x00\n        /* \"#utility.yul\":5048:5057   */\n      dup3\n        /* \"#utility.yul\":5044:5061   */\n      add\n        /* \"#utility.yul\":5031:5062   */\n      calldataload\n        /* \"#utility.yul\":5089:5107   */\n      0xffffffffffffffff\n        /* \"#utility.yul\":5081:5087   */\n      dup2\n        /* \"#utility.yul\":5078:5108   */\n      gt\n        /* \"#utility.yul\":5075:5192   */\n      iszero\n      tag_153\n      jumpi\n        /* \"#utility.yul\":5111:5190   */\n      tag_154\n      tag_57\n      jump\t// in\n    tag_154:\n        /* \"#utility.yul\":5075:5192   */\n    tag_153:\n        /* \"#utility.yul\":5216:5279   */\n      tag_155\n        /* \"#utility.yul\":5271:5278   */\n      dup5\n        /* \"#utility.yul\":5262:5268   */\n      dup3\n        /* \"#utility.yul\":5251:5260   */\n      dup6\n        /* \"#utility.yul\":5247:5269   */\n      add\n        /* \"#utility.yul\":5216:5279   */\n      tag_76\n      jump\t// in\n    tag_155:\n        /* \"#utility.yul\":5206:5279   */\n      swap2\n      pop\n        /* \"#utility.yul\":5002:5289   */\n      pop\n        /* \"#utility.yul\":4787:5296   */\n      swap3\n      swap2\n      pop\n      pop\n      jump\t// out\n        /* \"#utility.yul\":5302:5956   */\n    tag_22:\n        /* \"#utility.yul\":5380:5386   */\n      0x00\n        /* \"#utility.yul\":5388:5394   */\n      dup1\n        /* \"#utility.yul\":5437:5439   */\n      0x40\n        /* \"#utility.yul\":5425:5434   */\n      dup4\n        /* \"#utility.yul\":5416:5423   */\n      dup6\n        /* \"#utility.yul\":5412:5435   */\n      sub\n        /* \"#utility.yul\":5408:5440   */\n      slt\n        /* \"#utility.yul\":5405:5524   */\n      iszero\n      tag_157\n      jumpi\n        /* \"#utility.yul\":5443:5522   */\n      tag_158\n      tag_56\n      jump\t// in\n    tag_158:\n        /* \"#utility.yul\":5405:5524   */\n    tag_157:\n        /* \"#utility.yul\":5563:5564   */\n      0x00\n        /* \"#utility.yul\":5588:5641   */\n      tag_159\n        /* \"#utility.yul\":5633:5640   */\n      dup6\n        /* \"#utility.yul\":5624:5630   */\n      dup3\n        /* \"#utility.yul\":5613:5622   */\n      dup7\n        /* \"#utility.yul\":5609:5631   */\n      add\n        /* \"#utility.yul\":5588:5641   */\n      tag_60\n      jump\t// in\n    tag_159:\n        /* \"#utility.yul\":5578:5641   */\n      swap3\n      pop\n        /* \"#utility.yul\":5534:5651   */\n      pop\n        /* \"#utility.yul\":5718:5720   */\n      0x20\n        /* \"#utility.yul\":5707:5716   */\n      dup4\n        /* \"#utility.yul\":5703:5721   */\n      add\n        /* \"#utility.yul\":5690:5722   */\n      calldataload\n        /* \"#utility.yul\":5749:5767   */\n      0xffffffffffffffff\n        /* \"#utility.yul\":5741:5747   */\n      dup2\n        /* \"#utility.yul\":5738:5768   */\n      gt\n        /* \"#utility.yul\":5735:5852   */\n      iszero\n      tag_160\n      jumpi\n        /* \"#utility.yul\":5771:5850   */\n      tag_161\n      tag_57\n      jump\t// in\n    tag_161:\n        /* \"#utility.yul\":5735:5852   */\n    tag_160:\n        /* \"#utility.yul\":5876:5939   */\n      tag_162\n        /* \"#utility.yul\":5931:5938   */\n      dup6\n        /* \"#utility.yul\":5922:5928   */\n      dup3\n        /* \"#utility.yul\":5911:5920   */\n      dup7\n        /* \"#utility.yul\":5907:5929   */\n      add\n        /* \"#utility.yul\":5876:5939   */\n      tag_76\n      jump\t// in\n    tag_162:\n        /* \"#utility.yul\":5866:5939   */\n      swap2\n      pop\n        /* \"#utility.yul\":5661:5949   */\n      pop\n        /* \"#utility.yul\":5302:5956   */\n      swap3\n      pop\n      swap3\n      swap1\n      pop\n      jump\t// out\n        /* \"#utility.yul\":5962:6142   */\n    tag_27:\n        /* \"#utility.yul\":6010:6087   */\n      0x4e487b7100000000000000000000000000000000000000000000000000000000\n        /* \"#utility.yul\":6007:6008   */\n      0x00\n        /* \"#utility.yul\":6000:6088   */\n      mstore\n        /* \"#utility.yul\":6107:6111   */\n      0x32\n        /* \"#utility.yul\":6104:6105   */\n      0x04\n        /* \"#utility.yul\":6097:6112   */\n      mstore\n        /* \"#utility.yul\":6131:6135   */\n      0x24\n        /* \"#utility.yul\":6128:6129   */\n      0x00\n        /* \"#utility.yul\":6121:6136   */\n      revert\n        /* \"#utility.yul\":6148:6328   */\n    tag_77:\n        /* \"#utility.yul\":6196:6273   */\n      0x4e487b7100000000000000000000000000000000000000000000000000000000\n        /* \"#utility.yul\":6193:6194   */\n      0x00\n        /* \"#utility.yul\":6186:6274   */\n      mstore\n        /* \"#utility.yul\":6293:6297   */\n      0x22\n        /* \"#utility.yul\":6290:6291   */\n      0x04\n        /* \"#utility.yul\":6283:6298   */\n      mstore\n        /* \"#utility.yul\":6317:6321   */\n      0x24\n        /* \"#utility.yul\":6314:6315   */\n      0x00\n        /* \"#utility.yul\":6307:6322   */\n      revert\n        /* \"#utility.yul\":6334:6654   */\n    tag_35:\n        /* \"#utility.yul\":6378:6384   */\n      0x00\n        /* \"#utility.yul\":6415:6416   */\n      0x02\n        /* \"#utility.yul\":6409:6413   */\n      dup3\n        /* \"#utility.yul\":6405:6417   */\n      div\n        /* \"#utility.yul\":6395:6417   */\n      swap1\n      pop\n        /* \"#utility.yul\":6462:6463   */\n      0x01\n        /* \"#utility.yul\":6456:6460   */\n      dup3\n        /* \"#utility.yul\":6452:6464   */\n      and\n        /* \"#utility.yul\":6483:6501   */\n      dup1\n        /* \"#utility.yul\":6473:6554   */\n      tag_166\n      jumpi\n        /* \"#utility.yul\":6539:6543   */\n      0x7f\n        /* \"#utility.yul\":6531:6537   */\n      dup3\n        /* \"#utility.yul\":6527:6544   */\n      and\n        /* \"#utility.yul\":6517:6544   */\n      swap2\n      pop\n        /* \"#utility.yul\":6473:6554   */\n    tag_166:\n        /* \"#utility.yul\":6601:6603   */\n      0x20\n        /* \"#utility.yul\":6593:6599   */\n      dup3\n        /* \"#utility.yul\":6590:6604   */\n      lt\n        /* \"#utility.yul\":6570:6588   */\n      dup2\n        /* \"#utility.yul\":6567:6605   */\n      sub\n        /* \"#utility.yul\":6564:6648   */\n      tag_167\n      jumpi\n        /* \"#utility.yul\":6620:6638   */\n      tag_168\n      tag_77\n      jump\t// in\n    tag_168:\n        /* \"#utility.yul\":6564:6648   */\n    tag_167:\n        /* \"#utility.yul\":6385:6654   */\n      pop\n        /* \"#utility.yul\":6334:6654   */\n      swap2\n      swap1\n      pop\n      jump\t// out\n        /* \"#utility.yul\":6660:6801   */\n    tag_78:\n        /* \"#utility.yul\":6709:6713   */\n      0x00\n        /* \"#utility.yul\":6732:6735   */\n      dup2\n        /* \"#utility.yul\":6724:6735   */\n      swap1\n      pop\n        /* \"#utility.yul\":6755:6758   */\n      dup2\n        /* \"#utility.yul\":6752:6753   */\n      0x00\n        /* \"#utility.yul\":6745:6759   */\n      mstore\n        /* \"#utility.yul\":6789:6793   */\n      0x20\n        /* \"#utility.yul\":6786:6787   */\n      0x00\n        /* \"#utility.yul\":6776:6794   */\n      keccak256\n        /* \"#utility.yul\":6768:6794   */\n      swap1\n      pop\n        /* \"#utility.yul\":6660:6801   */\n      swap2\n      swap1\n      pop\n      jump\t// out\n        /* \"#utility.yul\":6807:6900   */\n    tag_79:\n        /* \"#utility.yul\":6844:6850   */\n      0x00\n        /* \"#utility.yul\":6891:6893   */\n      0x20\n        /* \"#utility.yul\":6886:6888   */\n      0x1f\n        /* \"#utility.yul\":6879:6884   */\n      dup4\n        /* \"#utility.yul\":6875:6889   */\n      add\n        /* \"#utility.yul\":6871:6894   */\n      div\n        /* \"#utility.yul\":6861:6894   */\n      swap1\n      pop\n        /* \"#utility.yul\":6807:6900   */\n      swap2\n      swap1\n      pop\n      jump\t// out\n        /* \"#utility.yul\":6906:7013   */\n    tag_80:\n        /* \"#utility.yul\":6950:6958   */\n      0x00\n        /* \"#utility.yul\":7000:7005   */\n      dup3\n        /* \"#utility.yul\":6994:6998   */\n      dup3\n        /* \"#utility.yul\":6990:7006   */\n      shl\n        /* \"#utility.yul\":6969:7006   */\n      swap1\n      pop\n        /* \"#utility.yul\":6906:7013   */\n      swap3\n      swap2\n      pop\n      pop\n      jump\t// out\n        /* \"#utility.yul\":7019:7412   */\n    tag_81:\n        /* \"#utility.yul\":7088:7094   */\n      0x00\n        /* \"#utility.yul\":7138:7139   */\n      0x08\n        /* \"#utility.yul\":7126:7136   */\n      dup4\n        /* \"#utility.yul\":7122:7140   */\n      mul\n        /* \"#utility.yul\":7161:7258   */\n      tag_173\n        /* \"#utility.yul\":7191:7257   */\n      0xffffffffffffffffffffffffffffffffffffffffffffffffffffffffffffffff\n        /* \"#utility.yul\":7180:7189   */\n      dup3\n        /* \"#utility.yul\":7161:7258   */\n      tag_80\n      jump\t// in\n    tag_173:\n        /* \"#utility.yul\":7279:7318   */\n      tag_174\n        /* \"#utility.yul\":7309:7317   */\n      dup7\n        /* \"#utility.yul\":7298:7307   */\n      dup4\n        /* \"#utility.yul\":7279:7318   */\n      tag_80\n      jump\t// in\n    tag_174:\n        /* \"#utility.yul\":7267:7318   */\n      swap6\n      pop\n        /* \"#utility.yul\":7351:7355   */\n      dup1\n        /* \"#utility.yul\":7347:7356   */\n      not\n        /* \"#utility.yul\":7340:7345   */\n      dup5\n        /* \"#utility.yul\":7336:7357   */\n      and\n        /* \"#utility.yul\":7327:7357   */\n      swap4\n      pop\n        /* \"#utility.yul\":7400:7404   */\n      dup1\n        /* \"#utility.yul\":7390:7398   */\n      dup7\n        /* \"#utility.yul\":7386:7405   */\n      and\n        /* \"#utility.yul\":7379:7384   */\n      dup5\n        /* \"#utility.yul\":7376:7406   */\n      or\n        /* \"#utility.yul\":7366:7406   */\n      swap3\n      pop\n        /* \"#utility.yul\":7095:7412   */\n      pop\n      pop\n        /* \"#utility.yul\":7019:7412   */\n      swap4\n      swap3\n      pop\n      pop\n      pop\n      jump\t// out\n        /* \"#utility.yul\":7418:7478   */\n    tag_82:\n        /* \"#utility.yul\":7446:7449   */\n      0x00\n        /* \"#utility.yul\":7467:7472   */\n      dup2\n        /* \"#utility.yul\":7460:7472   */\n      swap1\n      pop\n        /* \"#utility.yul\":7418:7478   */\n      swap2\n      swap1\n      pop\n      jump\t// out\n        /* \"#utility.yul\":7484:7626   */\n    tag_83:\n        /* \"#utility.yul\":7534:7543   */\n      0x00\n        /* \"#utility.yul\":7567:7620   */\n      tag_177\n        /* \"#utility.yul\":7585:7619   */\n      tag_178\n        /* \"#utility.yul\":7594:7618   */\n      tag_179\n        /* \"#utility.yul\":7612:7617   */\n      dup5\n        /* \"#utility.yul\":7594:7618   */\n      tag_58\n      jump\t// in\n    tag_179:\n        /* \"#utility.yul\":7585:7619   */\n      tag_82\n      jump\t// in\n    tag_178:\n        /* \"#utility.yul\":7567:7620   */\n      tag_58\n      jump\t// in\n    tag_177:\n        /* \"#utility.yul\":7554:7620   */\n      swap1\n      pop\n        /* \"#utility.yul\":7484:7626   */\n      swap2\n      swap1\n      pop\n      jump\t// out\n        /* \"#utility.yul\":7632:7707   */\n    tag_84:\n        /* \"#utility.yul\":7675:7678   */\n      0x00\n        /* \"#utility.yul\":7696:7701   */\n      dup2\n        /* \"#utility.yul\":7689:7701   */\n      swap1\n      pop\n        /* \"#utility.yul\":7632:7707   */\n      swap2\n      swap1\n      pop\n      jump\t// out\n        /* \"#utility.yul\":7713:7982   */\n    tag_85:\n        /* \"#utility.yul\":7823:7862   */\n      tag_182\n        /* \"#utility.yul\":7854:7861   */\n      dup4\n        /* \"#utility.yul\":7823:7862   */\n      tag_83\n      jump\t// in\n    tag_182:\n        /* \"#utility.yul\":7884:7975   */\n      tag_183\n        /* \"#utility.yul\":7933:7974   */\n      tag_184\n        /* \"#utility.yul\":7957:7973   */\n      dup3\n        /* \"#utility.yul\":7933:7974   */\n      tag_84\n      jump\t// in\n    tag_184:\n        /* \"#utility.yul\":7925:7931   */\n      dup5\n        /* \"#utility.yul\":7918:7922   */\n      dup5\n        /* \"#utility.yul\":7912:7923   */\n      sload\n        /* \"#utility.yul\":7884:7975   */\n      tag_81\n      jump\t// in\n    tag_183:\n        /* \"#utility.yul\":7878:7882   */\n      dup3\n        /* \"#utility.yul\":7871:7976   */\n      sstore\n        /* \"#utility.yul\":7789:7982   */\n      pop\n        /* \"#utility.yul\":7713:7982   */\n      pop\n      pop\n      pop\n      jump\t// out\n        /* \"#utility.yul\":7988:8061   */\n    tag_86:\n        /* \"#utility.yul\":8033:8036   */\n      0x00\n        /* \"#utility.yul\":7988:8061   */\n      swap1\n      jump\t// out\n        /* \"#utility.yul\":8067:8256   */\n    tag_87:\n        /* \"#utility.yul\":8144:8176   */\n      tag_187\n      tag_86\n      jump\t// in\n    tag_187:\n        /* \"#utility.yul\":8185:8250   */\n      tag_188\n        /* \"#utility.yul\":8243:8249   */\n      dup2\n        /* \"#utility.yul\":8235:8241   */\n      dup5\n        /* \"#utility.yul\":8229:8233   */\n      dup5\n        /* \"#utility.yul\":8185:8250   */\n      tag_85\n      jump\t// in\n    tag_188:\n        /* \"#utility.yul\":8120:8256   */\n      pop\n        /* \"#utility.yul\":8067:8256   */\n      pop\n      pop\n      jump\t// out\n        /* \"#utility.yul\":8262:8448   */\n    tag_88:\n        /* \"#utility.yul\":8322:8442   */\n    tag_190:\n        /* \"#utility.yul\":8339:8342   */\n      dup2\n        /* \"#utility.yul\":8332:8337   */\n      dup2\n        /* \"#utility.yul\":8329:8343   */\n      lt\n        /* \"#utility.yul\":8322:8442   */\n      iszero\n      tag_192\n      jumpi\n        /* \"#utility.yul\":8393:8432   */\n      tag_193\n        /* \"#utility.yul\":8430:8431   */\n      0x00\n        /* \"#utility.yul\":8423:8428   */\n      dup3\n        /* \"#utility.yul\":8393:8432   */\n      tag_87\n      jump\t// in\n    tag_193:\n        /* \"#utility.yul\":8366:8367   */\n      0x01\n        /* \"#utility.yul\":8359:8364   */\n      dup2\n        /* \"#utility.yul\":8355:8368   */\n      add\n        /* \"#utility.yul\":8346:8368   */\n      swap1\n      pop\n        /* \"#utility.yul\":8322:8442   */\n      jump(tag_190)\n    tag_192:\n        /* \"#utility.yul\":8262:8448   */\n      pop\n      pop\n      jump\t// out\n        /* \"#utility.yul\":8454:8997   */\n    tag_89:\n        /* \"#utility.yul\":8555:8557   */\n      0x1f\n        /* \"#utility.yul\":8550:8553   */\n      dup3\n        /* \"#utility.yul\":8547:8558   */\n      gt\n        /* \"#utility.yul\":8544:8990   */\n      iszero\n      tag_195\n      jumpi\n        /* \"#utility.yul\":8589:8627   */\n      tag_196\n        /* \"#utility.yul\":8621:8626   */\n      dup2\n        /* \"#utility.yul\":8589:8627   */\n      tag_78\n      jump\t// in\n    tag_196:\n        /* \"#utility.yul\":8673:8702   */\n      tag_197\n        /* \"#utility.yul\":8691:8701   */\n      dup5\n        /* \"#utility.yul\":8673:8702   */\n      tag_79\n      jump\t// in\n    tag_197:\n        /* \"#utility.yul\":8663:8671   */\n      dup2\n        /* \"#utility.yul\":8659:8703   */\n      add\n        /* \"#utility.yul\":8856:8858   */\n      0x20\n        /* \"#utility.yul\":8844:8854   */\n      dup6\n        /* \"#utility.yul\":8841:8859   */\n      lt\n        /* \"#utility.yul\":8838:8887   */\n      iszero\n      tag_198\n      jumpi\n        /* \"#utility.yul\":8877:8885   */\n      dup2\n        /* \"#utility.yul\":8862:8885   */\n      swap1\n      pop\n        /* \"#utility.yul\":8838:8887   */\n    tag_198:\n        /* \"#utility.yul\":8900:8980   */\n      tag_199\n        /* \"#utility.yul\":8956:8978   */\n      tag_200\n        /* \"#utility.yul\":8974:8977   */\n      dup6\n        /* \"#utility.yul\":8956:8978   */\n      tag_79\n      jump\t// in\n    tag_200:\n        /* \"#utility.yul\":8946:8954   */\n      dup4\n        /* \"#utility.yul\":8942:8979   */\n      add\n        /* \"#utility.yul\":8929:8940   */\n      dup3\n        /* \"#utility.yul\":8900:8980   */\n      tag_88\n      jump\t// in\n    tag_199:\n        /* \"#utility.yul\":8559:8990   */\n      pop\n      pop\n        /* \"#utility.yul\":8544:8990   */\n    tag_195:\n        /* \"#utility.yul\":8454:8997   */\n      pop\n      pop\n      pop\n      jump\t// out\n        /* \"#utility.yul\":9003:9120   */\n    tag_90:\n        /* \"#utility.yul\":9057:9065   */\n      0x00\n        /* \"#utility.yul\":9107:9112   */\n      dup3\n        /* \"#utility.yul\":9101:9105   */\n      dup3\n        /* \"#utility.yul\":9097:9113   */\n      shr\n        /* \"#utility.yul\":9076:9113   */\n      swap1\n      pop\n        /* \"#utility.yul\":9003:9120   */\n      swap3\n      swap2\n      pop\n      pop\n      jump\t// out\n        /* \"#utility.yul\":9126:9295   */\n    tag_91:\n        /* \"#utility.yul\":9170:9176   */\n      0x00\n        /* \"#utility.yul\":9203:9254   */\n      tag_203\n        /* \"#utility.yul\":9251:9252   */\n      0x00\n        /* \"#utility.yul\":9247:9253   */\n      not\n        /* \"#utility.yul\":9239:9244   */\n      dup5\n        /* \"#utility.yul\":9236:9237   */\n      0x08\n        /* \"#utility.yul\":9232:9245   */\n      mul\n        /* \"#utility.yul\":9203:9254   */\n      tag_90\n      jump\t// in\n    tag_203:\n        /* \"#utility.yul\":9199:9255   */\n      not\n        /* \"#utility.yul\":9284:9288   */\n      dup1\n        /* \"#utility.yul\":9278:9282   */\n      dup4\n        /* \"#utility.yul\":9274:9289   */\n      and\n        /* \"#utility.yul\":9264:9289   */\n      swap2\n      pop\n        /* \"#utility.yul\":9177:9295   */\n      pop\n        /* \"#utility.yul\":9126:9295   */\n      swap3\n      swap2\n      pop\n      pop\n      jump\t// out\n        /* \"#utility.yul\":9300:9595   */\n    tag_92:\n        /* \"#utility.yul\":9376:9380   */\n      0x00\n        /* \"#utility.yul\":9522:9551   */\n      tag_205\n        /* \"#utility.yul\":9547:9550   */\n      dup4\n        /* \"#utility.yul\":9541:9545   */\n      dup4\n        /* \"#utility.yul\":9522:9551   */\n      tag_91\n      jump\t// in\n    tag_205:\n        /* \"#utility.yul\":9514:9551   */\n      swap2\n      pop\n        /* \"#utility.yul\":9584:9587   */\n      dup3\n        /* \"#utility.yul\":9581:9582   */\n      0x02\n        /* \"#utility.yul\":9577:9588   */\n      mul\n        /* \"#utility.yul\":9571:9575   */\n      dup3\n        /* \"#utility.yul\":9568:9589   */\n      or\n        /* \"#utility.yul\":9560:9589   */\n      swap1\n      pop\n        /* \"#utility.yul\":9300:9595   */\n      swap3\n      swap2\n      pop\n      pop\n      jump\t// out\n        /* \"#utility.yul\":9600:10995   */\n    tag_43:\n        /* \"#utility.yul\":9717:9754   */\n      tag_207\n        /* \"#utility.yul\":9750:9753   */\n      dup3\n        /* \"#utility.yul\":9717:9754   */\n      tag_61\n      jump\t// in\n    tag_207:\n        /* \"#utility.yul\":9819:9837   */\n      0xffffffffffffffff\n        /* \"#utility.yul\":9811:9817   */\n      dup2\n        /* \"#utility.yul\":9808:9838   */\n      gt\n        /* \"#utility.yul\":9805:9861   */\n      iszero\n      tag_208\n      jumpi\n        /* \"#utility.yul\":9841:9859   */\n      tag_209\n      tag_70\n      jump\t// in\n    tag_209:\n        /* \"#utility.yul\":9805:9861   */\n    tag_208:\n        /* \"#utility.yul\":9885:9923   */\n      tag_210\n        /* \"#utility.yul\":9917:9921   */\n      dup3\n        /* \"#utility.yul\":9911:9922   */\n      sload\n        /* \"#utility.yul\":9885:9923   */\n      tag_35\n      jump\t// in\n    tag_210:\n        /* \"#utility.yul\":9970:10037   */\n      tag_211\n        /* \"#utility.yul\":10030:10036   */\n      dup3\n        /* \"#utility.yul\":10022:10028   */\n      dup3\n        /* \"#utility.yul\":10016:10020   */\n      dup6\n        /* \"#utility.yul\":9970:10037   */\n      tag_89\n      jump\t// in\n    tag_211:\n        /* \"#utility.yul\":10064:10065   */\n      0x00\n        /* \"#utility.yul\":10088:10092   */\n      0x20\n        /* \"#utility.yul\":10075:10092   */\n      swap1\n      pop\n        /* \"#utility.yul\":10120:10122   */\n      0x1f\n        /* \"#utility.yul\":10112:10118   */\n      dup4\n        /* \"#utility.yul\":10109:10123   */\n      gt\n        /* \"#utility.yul\":10137:10138   */\n      0x01\n        /* \"#utility.yul\":10132:10750   */\n      dup2\n      eq\n      tag_213\n      jumpi\n        /* \"#utility.yul\":10794:10795   */\n      0x00\n        /* \"#utility.yul\":10811:10817   */\n      dup5\n        /* \"#utility.yul\":10808:10885   */\n      iszero\n      tag_214\n      jumpi\n        /* \"#utility.yul\":10860:10869   */\n      dup3\n        /* \"#utility.yul\":10855:10858   */\n      dup8\n        /* \"#utility.yul\":10851:10870   */\n      add\n        /* \"#utility.yul\":10845:10871   */\n      mload\n        /* \"#utility.yul\":10836:10871   */\n      swap1\n      pop\n        /* \"#utility.yul\":10808:10885   */\n    tag_214:\n        /* \"#utility.yul\":10911:10978   */\n      tag_215\n        /* \"#utility.yul\":10971:10977   */\n      dup6\n        /* \"#utility.yul\":10964:10969   */\n      dup3\n        /* \"#utility.yul\":10911:10978   */\n      tag_92\n      jump\t// in\n    tag_215:\n        /* \"#utility.yul\":10905:10909   */\n      dup7\n        /* \"#utility.yul\":10898:10979   */\n      sstore\n        /* \"#utility.yul\":10767:10989   */\n      pop\n        /* \"#utility.yul\":10102:10989   */\n      jump(tag_212)\n        /* \"#utility.yul\":10132:10750   */\n    tag_213:\n        /* \"#utility.yul\":10184:10188   */\n      0x1f\n        /* \"#utility.yul\":10180:10189   */\n      not\n        /* \"#utility.yul\":10172:10178   */\n      dup5\n        /* \"#utility.yul\":10168:10190   */\n      and\n        /* \"#utility.yul\":10218:10255   */\n      tag_216\n        /* \"#utility.yul\":10250:10254   */\n      dup7\n        /* \"#utility.yul\":10218:10255   */\n      tag_78\n      jump\t// in\n    tag_216:\n        /* \"#utility.yul\":10277:10278   */\n      0x00\n        /* \"#utility.yul\":10291:10499   */\n    tag_217:\n        /* \"#utility.yul\":10305:10312   */\n      dup3\n        /* \"#utility.yul\":10302:10303   */\n      dup2\n        /* \"#utility.yul\":10299:10313   */\n      lt\n        /* \"#utility.yul\":10291:10499   */\n      iszero\n      tag_219\n      jumpi\n        /* \"#utility.yul\":10384:10393   */\n      dup5\n        /* \"#utility.yul\":10379:10382   */\n      dup10\n        /* \"#utility.yul\":10375:10394   */\n      add\n        /* \"#utility.yul\":10369:10395   */\n      mload\n        /* \"#utility.yul\":10361:10367   */\n      dup3\n        /* \"#utility.yul\":10354:10396   */\n      sstore\n        /* \"#utility.yul\":10435:10436   */\n      0x01\n        /* \"#utility.yul\":10427:10433   */\n      dup3\n        /* \"#utility.yul\":10423:10437   */\n      add\n        /* \"#utility.yul\":10413:10437   */\n      swap2\n      pop\n        /* \"#utility.yul\":10482:10484   */\n      0x20\n        /* \"#utility.yul\":10471:10480   */\n      dup6\n        /* \"#utility.yul\":10467:10485   */\n      add\n        /* \"#utility.yul\":10454:10485   */\n      swap5\n      pop\n        /* \"#utility.yul\":10328:10332   */\n      0x20\n        /* \"#utility.yul\":10325:10326   */\n      dup2\n        /* \"#utility.yul\":10321:10333   */\n      add\n        /* \"#utility.yul\":10316:10333   */\n      swap1\n      pop\n        /* \"#utility.yul\":10291:10499   */\n      jump(tag_217)\n    tag_219:\n        /* \"#utility.yul\":10527:10533   */\n      dup7\n        /* \"#utility.yul\":10518:10525   */\n      dup4\n        /* \"#utility.yul\":10515:10534   */\n      lt\n        /* \"#utility.yul\":10512:10691   */\n      iszero\n      tag_220\n      jumpi\n        /* \"#utility.yul\":10585:10594   */\n      dup5\n        /* \"#utility.yul\":10580:10583   */\n      dup10\n        /* \"#utility.yul\":10576:10595   */\n      add\n        /* \"#utility.yul\":10570:10596   */\n      mload\n        /* \"#utility.yul\":10628:10676   */\n      tag_221\n        /* \"#utility.yul\":10670:10674   */\n      0x1f\n        /* \"#utility.yul\":10662:10668   */\n      dup10\n        /* \"#utility.yul\":10658:10675   */\n      and\n        /* \"#utility.yul\":10647:10656   */\n      dup3\n        /* \"#utility.yul\":10628:10676   */\n      tag_91\n      jump\t// in\n    tag_221:\n        /* \"#utility.yul\":10620:10626   */\n      dup4\n        /* \"#utility.yul\":10613:10677   */\n      sstore\n        /* \"#utility.yul\":10535:10691   */\n      pop\n        /* \"#utility.yul\":10512:10691   */\n    tag_220:\n        /* \"#utility.yul\":10737:10738   */\n      0x01\n        /* \"#utility.yul\":10733:10734   */\n      0x02\n        /* \"#utility.yul\":10725:10731   */\n      dup9\n        /* \"#utility.yul\":10721:10735   */\n      mul\n        /* \"#utility.yul\":10717:10739   */\n      add\n        /* \"#utility.yul\":10711:10715   */\n      dup9\n        /* \"#utility.yul\":10704:10740   */\n      sstore\n        /* \"#utility.yul\":10139:10750   */\n      pop\n      pop\n      pop\n        /* \"#utility.yul\":10102:10989   */\n    tag_212:\n      pop\n        /* \"#utility.yul\":9692:10995   */\n      pop\n      pop\n      pop\n        /* \"#utility.yul\":9600:10995   */\n      pop\n      pop\n      jump\t// out\n\n    auxdata: 0xa2646970667358221220feaeb9d257b750f8027f773db751ef980c9b396cf2a8c760ce589d54a60b058464736f6c63430008110033\n}\n",
				"bytecode": {
					"linkReferences": {},
					"object": "608060405234801561001057600080fd5b50610a54806100206000396000f3fe608060405234801561001057600080fd5b506004361061004c5760003560e01c8063455f502414610051578063bc8bc2b41461006d578063e34f12211461009e578063f745630f146100ba575b600080fd5b61006b6004803603810190610066919061042f565b6100d6565b005b6100876004803603810190610082919061042f565b610149565b604051610095929190610507565b60405180910390f35b6100b860048036038101906100b3919061066c565b610212565b005b6100d460048036038101906100cf91906106b5565b610392565b005b600081815481106100ea576100e9610711565b5b906000526020600020906002020160010160009054906101000a900460ff16156000828154811061011e5761011d610711565b5b906000526020600020906002020160010160006101000a81548160ff02191690831515021790555050565b6000818154811061015957600080fd5b906000526020600020906002020160009150905080600001805461017c9061076f565b80601f01602080910402602001604051908101604052809291908181526020018280546101a89061076f565b80156101f55780601f106101ca576101008083540402835291602001916101f5565b820191906000526020600020905b8154815290600101906020018083116101d857829003601f168201915b5050505050908060010160009054906101000a900460ff16905082565b60006040518060400160405280838152602001600015158152509080600181540180825580915050600190039060005260206000209060020201600090919091909150600082015181600001908161026a919061094c565b5060208201518160010160006101000a81548160ff02191690831515021790555050506000604051806040016040528083815260200160001515815250908060018154018082558091505060019003906000526020600020906002020160009091909190915060008201518160000190816102e5919061094c565b5060208201518160010160006101000a81548160ff02191690831515021790555050506103106103c9565b81816000018190525060008160200190151590811515815250506000819080600181540180825580915050600190039060005260206000209060020201600090919091909150600082015181600001908161036b919061094c565b5060208201518160010160006101000a81548160ff02191690831515021790555050505050565b80600083815481106103a7576103a6610711565b5b906000526020600020906002020160000190816103c4919061094c565b505050565b6040518060400160405280606081526020016000151581525090565b6000604051905090565b600080fd5b600080fd5b6000819050919050565b61040c816103f9565b811461041757600080fd5b50565b60008135905061042981610403565b92915050565b600060208284031215610445576104446103ef565b5b60006104538482850161041a565b91505092915050565b600081519050919050565b600082825260208201905092915050565b60005b8381101561049657808201518184015260208101905061047b565b60008484015250505050565b6000601f19601f8301169050919050565b60006104be8261045c565b6104c88185610467565b93506104d8818560208601610478565b6104e1816104a2565b840191505092915050565b60008115159050919050565b610501816104ec565b82525050565b6000604082019050818103600083015261052181856104b3565b905061053060208301846104f8565b9392505050565b600080fd5b600080fd5b7f4e487b7100000000000000000000000000000000000000000000000000000000600052604160045260246000fd5b610579826104a2565b810181811067ffffffffffffffff8211171561059857610597610541565b5b80604052505050565b60006105ab6103e5565b90506105b78282610570565b919050565b600067ffffffffffffffff8211156105d7576105d6610541565b5b6105e0826104a2565b9050602081019050919050565b82818337600083830152505050565b600061060f61060a846105bc565b6105a1565b90508281526020810184848401111561062b5761062a61053c565b5b6106368482856105ed565b509392505050565b600082601f83011261065357610652610537565b5b81356106638482602086016105fc565b91505092915050565b600060208284031215610682576106816103ef565b5b600082013567ffffffffffffffff8111156106a05761069f6103f4565b5b6106ac8482850161063e565b91505092915050565b600080604083850312156106cc576106cb6103ef565b5b60006106da8582860161041a565b925050602083013567ffffffffffffffff8111156106fb576106fa6103f4565b5b6107078582860161063e565b9150509250929050565b7f4e487b7100000000000000000000000000000000000000000000000000000000600052603260045260246000fd5b7f4e487b7100000000000000000000000000000000000000000000000000000000600052602260045260246000fd5b6000600282049050600182168061078757607f821691505b60208210810361079a57610799610740565b5b50919050565b60008190508160005260206000209050919050565b60006020601f8301049050919050565b600082821b905092915050565b6000600883026108027fffffffffffffffffffffffffffffffffffffffffffffffffffffffffffffffff826107c5565b61080c86836107c5565b95508019841693508086168417925050509392505050565b6000819050919050565b600061084961084461083f846103f9565b610824565b6103f9565b9050919050565b6000819050919050565b6108638361082e565b61087761086f82610850565b8484546107d2565b825550505050565b600090565b61088c61087f565b61089781848461085a565b505050565b5b818110156108bb576108b0600082610884565b60018101905061089d565b5050565b601f821115610900576108d1816107a0565b6108da846107b5565b810160208510156108e9578190505b6108fd6108f5856107b5565b83018261089c565b50505b505050565b600082821c905092915050565b600061092360001984600802610905565b1980831691505092915050565b600061093c8383610912565b9150826002028217905092915050565b6109558261045c565b67ffffffffffffffff81111561096e5761096d610541565b5b610978825461076f565b6109838282856108bf565b600060209050601f8311600181146109b657600084156109a4578287015190505b6109ae8582610930565b865550610a16565b601f1984166109c4866107a0565b60005b828110156109ec578489015182556001820191506020850194506020810190506109c7565b86831015610a095784890151610a05601f891682610912565b8355505b6001600288020188555050505b50505050505056fea2646970667358221220feaeb9d257b750f8027f773db751ef980c9b396cf2a8c760ce589d54a60b058464736f6c63430008110033",
					"opcodes": "PUSH1 0x80 PUSH1 0x40 MSTORE CALLVALUE DUP1 ISZERO PUSH2 0x10 JUMPI PUSH1 0x0 DUP1 REVERT JUMPDEST POP PUSH2 0xA54 DUP1 PUSH2 0x20 PUSH1 0x0 CODECOPY PUSH1 0x0 RETURN INVALID PUSH1 0x80 PUSH1 0x40 MSTORE CALLVALUE DUP1 ISZERO PUSH2 0x10 JUMPI PUSH1 0x0 DUP1 REVERT JUMPDEST POP PUSH1 0x4 CALLDATASIZE LT PUSH2 0x4C JUMPI PUSH1 0x0 CALLDATALOAD PUSH1 0xE0 SHR DUP1 PUSH4 0x455F5024 EQ PUSH2 0x51 JUMPI DUP1 PUSH4 0xBC8BC2B4 EQ PUSH2 0x6D JUMPI DUP1 PUSH4 0xE34F1221 EQ PUSH2 0x9E JUMPI DUP1 PUSH4 0xF745630F EQ PUSH2 0xBA JUMPI JUMPDEST PUSH1 0x0 DUP1 REVERT JUMPDEST PUSH2 0x6B PUSH1 0x4 DUP1 CALLDATASIZE SUB DUP2 ADD SWAP1 PUSH2 0x66 SWAP2 SWAP1 PUSH2 0x42F JUMP JUMPDEST PUSH2 0xD6 JUMP JUMPDEST STOP JUMPDEST PUSH2 0x87 PUSH1 0x4 DUP1 CALLDATASIZE SUB DUP2 ADD SWAP1 PUSH2 0x82 SWAP2 SWAP1 PUSH2 0x42F JUMP JUMPDEST PUSH2 0x149 JUMP JUMPDEST PUSH1 0x40 MLOAD PUSH2 0x95 SWAP3 SWAP2 SWAP1 PUSH2 0x507 JUMP JUMPDEST PUSH1 0x40 MLOAD DUP1 SWAP2 SUB SWAP1 RETURN JUMPDEST PUSH2 0xB8 PUSH1 0x4 DUP1 CALLDATASIZE SUB DUP2 ADD SWAP1 PUSH2 0xB3 SWAP2 SWAP1 PUSH2 0x66C JUMP JUMPDEST PUSH2 0x212 JUMP JUMPDEST STOP JUMPDEST PUSH2 0xD4 PUSH1 0x4 DUP1 CALLDATASIZE SUB DUP2 ADD SWAP1 PUSH2 0xCF SWAP2 SWAP1 PUSH2 0x6B5 JUMP JUMPDEST PUSH2 0x392 JUMP JUMPDEST STOP JUMPDEST PUSH1 0x0 DUP2 DUP2 SLOAD DUP2 LT PUSH2 0xEA JUMPI PUSH2 0xE9 PUSH2 0x711 JUMP JUMPDEST JUMPDEST SWAP1 PUSH1 0x0 MSTORE PUSH1 0x20 PUSH1 0x0 KECCAK256 SWAP1 PUSH1 0x2 MUL ADD PUSH1 0x1 ADD PUSH1 0x0 SWAP1 SLOAD SWAP1 PUSH2 0x100 EXP SWAP1 DIV PUSH1 0xFF AND ISZERO PUSH1 0x0 DUP3 DUP2 SLOAD DUP2 LT PUSH2 0x11E JUMPI PUSH2 0x11D PUSH2 0x711 JUMP JUMPDEST JUMPDEST SWAP1 PUSH1 0x0 MSTORE PUSH1 0x20 PUSH1 0x0 KECCAK256 SWAP1 PUSH1 0x2 MUL ADD PUSH1 0x1 ADD PUSH1 0x0 PUSH2 0x100 EXP DUP2 SLOAD DUP2 PUSH1 0xFF MUL NOT AND SWAP1 DUP4 ISZERO ISZERO MUL OR SWAP1 SSTORE POP POP JUMP JUMPDEST PUSH1 0x0 DUP2 DUP2 SLOAD DUP2 LT PUSH2 0x159 JUMPI PUSH1 0x0 DUP1 REVERT JUMPDEST SWAP1 PUSH1 0x0 MSTORE PUSH1 0x20 PUSH1 0x0 KECCAK256 SWAP1 PUSH1 0x2 MUL ADD PUSH1 0x0 SWAP2 POP SWAP1 POP DUP1 PUSH1 0x0 ADD DUP1 SLOAD PUSH2 0x17C SWAP1 PUSH2 0x76F JUMP JUMPDEST DUP1 PUSH1 0x1F ADD PUSH1 0x20 DUP1 SWAP2 DIV MUL PUSH1 0x20 ADD PUSH1 0x40 MLOAD SWAP1 DUP2 ADD PUSH1 0x40 MSTORE DUP1 SWAP3 SWAP2 SWAP1 DUP2 DUP2 MSTORE PUSH1 0x20 ADD DUP3 DUP1 SLOAD PUSH2 0x1A8 SWAP1 PUSH2 0x76F JUMP JUMPDEST DUP1 ISZERO PUSH2 0x1F5 JUMPI DUP1 PUSH1 0x1F LT PUSH2 0x1CA JUMPI PUSH2 0x100 DUP1 DUP4 SLOAD DIV MUL DUP4 MSTORE SWAP2 PUSH1 0x20 ADD SWAP2 PUSH2 0x1F5 JUMP JUMPDEST DUP3 ADD SWAP2 SWAP1 PUSH1 0x0 MSTORE PUSH1 0x20 PUSH1 0x0 KECCAK256 SWAP1 JUMPDEST DUP2 SLOAD DUP2 MSTORE SWAP1 PUSH1 0x1 ADD SWAP1 PUSH1 0x20 ADD DUP1 DUP4 GT PUSH2 0x1D8 JUMPI DUP3 SWAP1 SUB PUSH1 0x1F AND DUP3 ADD SWAP2 JUMPDEST POP POP POP POP POP SWAP1 DUP1 PUSH1 0x1 ADD PUSH1 0x0 SWAP1 SLOAD SWAP1 PUSH2 0x100 EXP SWAP1 DIV PUSH1 0xFF AND SWAP1 POP DUP3 JUMP JUMPDEST PUSH1 0x0 PUSH1 0x40 MLOAD DUP1 PUSH1 0x40 ADD PUSH1 0x40 MSTORE DUP1 DUP4 DUP2 MSTORE PUSH1 0x20 ADD PUSH1 0x0 ISZERO ISZERO DUP2 MSTORE POP SWAP1 DUP1 PUSH1 0x1 DUP2 SLOAD ADD DUP1 DUP3 SSTORE DUP1 SWAP2 POP POP PUSH1 0x1 SWAP1 SUB SWAP1 PUSH1 0x0 MSTORE PUSH1 0x20 PUSH1 0x0 KECCAK256 SWAP1 PUSH1 0x2 MUL ADD PUSH1 0x0 SWAP1 SWAP2 SWAP1 SWAP2 SWAP1 SWAP2 POP PUSH1 0x0 DUP3 ADD MLOAD DUP2 PUSH1 0x0 ADD SWAP1 DUP2 PUSH2 0x26A SWAP2 SWAP1 PUSH2 0x94C JUMP JUMPDEST POP PUSH1 0x20 DUP3 ADD MLOAD DUP2 PUSH1 0x1 ADD PUSH1 0x0 PUSH2 0x100 EXP DUP2 SLOAD DUP2 PUSH1 0xFF MUL NOT AND SWAP1 DUP4 ISZERO ISZERO MUL OR SWAP1 SSTORE POP POP POP PUSH1 0x0 PUSH1 0x40 MLOAD DUP1 PUSH1 0x40 ADD PUSH1 0x40 MSTORE DUP1 DUP4 DUP2 MSTORE PUSH1 0x20 ADD PUSH1 0x0 ISZERO ISZERO DUP2 MSTORE POP SWAP1 DUP1 PUSH1 0x1 DUP2 SLOAD ADD DUP1 DUP3 SSTORE DUP1 SWAP2 POP POP PUSH1 0x1 SWAP1 SUB SWAP1 PUSH1 0x0 MSTORE PUSH1 0x20 PUSH1 0x0 KECCAK256 SWAP1 PUSH1 0x2 MUL ADD PUSH1 0x0 SWAP1 SWAP2 SWAP1 SWAP2 SWAP1 SWAP2 POP PUSH1 0x0 DUP3 ADD MLOAD DUP2 PUSH1 0x0 ADD SWAP1 DUP2 PUSH2 0x2E5 SWAP2 SWAP1 PUSH2 0x94C JUMP JUMPDEST POP PUSH1 0x20 DUP3 ADD MLOAD DUP2 PUSH1 0x1 ADD PUSH1 0x0 PUSH2 0x100 EXP DUP2 SLOAD DUP2 PUSH1 0xFF MUL NOT AND SWAP1 DUP4 ISZERO ISZERO MUL OR SWAP1 SSTORE POP POP POP PUSH2 0x310 PUSH2 0x3C9 JUMP JUMPDEST DUP2 DUP2 PUSH1 0x0 ADD DUP2 SWAP1 MSTORE POP PUSH1 0x0 DUP2 PUSH1 0x20 ADD SWAP1 ISZERO ISZERO SWAP1 DUP2 ISZERO ISZERO DUP2 MSTORE POP POP PUSH1 0x0 DUP2 SWAP1 DUP1 PUSH1 0x1 DUP2 SLOAD ADD DUP1 DUP3 SSTORE DUP1 SWAP2 POP POP PUSH1 0x1 SWAP1 SUB SWAP1 PUSH1 0x0 MSTORE PUSH1 0x20 PUSH1 0x0 KECCAK256 SWAP1 PUSH1 0x2 MUL ADD PUSH1 0x0 SWAP1 SWAP2 SWAP1 SWAP2 SWAP1 SWAP2 POP PUSH1 0x0 DUP3 ADD MLOAD DUP2 PUSH1 0x0 ADD SWAP1 DUP2 PUSH2 0x36B SWAP2 SWAP1 PUSH2 0x94C JUMP JUMPDEST POP PUSH1 0x20 DUP3 ADD MLOAD DUP2 PUSH1 0x1 ADD PUSH1 0x0 PUSH2 0x100 EXP DUP2 SLOAD DUP2 PUSH1 0xFF MUL NOT AND SWAP1 DUP4 ISZERO ISZERO MUL OR SWAP1 SSTORE POP POP POP POP POP JUMP JUMPDEST DUP1 PUSH1 0x0 DUP4 DUP2 SLOAD DUP2 LT PUSH2 0x3A7 JUMPI PUSH2 0x3A6 PUSH2 0x711 JUMP JUMPDEST JUMPDEST SWAP1 PUSH1 0x0 MSTORE PUSH1 0x20 PUSH1 0x0 KECCAK256 SWAP1 PUSH1 0x2 MUL ADD PUSH1 0x0 ADD SWAP1 DUP2 PUSH2 0x3C4 SWAP2 SWAP1 PUSH2 0x94C JUMP JUMPDEST POP POP POP JUMP JUMPDEST PUSH1 0x40 MLOAD DUP1 PUSH1 0x40 ADD PUSH1 0x40 MSTORE DUP1 PUSH1 0x60 DUP2 MSTORE PUSH1 0x20 ADD PUSH1 0x0 ISZERO ISZERO DUP2 MSTORE POP SWAP1 JUMP JUMPDEST PUSH1 0x0 PUSH1 0x40 MLOAD SWAP1 POP SWAP1 JUMP JUMPDEST PUSH1 0x0 DUP1 REVERT JUMPDEST PUSH1 0x0 DUP1 REVERT JUMPDEST PUSH1 0x0 DUP2 SWAP1 POP SWAP2 SWAP1 POP JUMP JUMPDEST PUSH2 0x40C DUP2 PUSH2 0x3F9 JUMP JUMPDEST DUP2 EQ PUSH2 0x417 JUMPI PUSH1 0x0 DUP1 REVERT JUMPDEST POP JUMP JUMPDEST PUSH1 0x0 DUP2 CALLDATALOAD SWAP1 POP PUSH2 0x429 DUP2 PUSH2 0x403 JUMP JUMPDEST SWAP3 SWAP2 POP POP JUMP JUMPDEST PUSH1 0x0 PUSH1 0x20 DUP3 DUP5 SUB SLT ISZERO PUSH2 0x445 JUMPI PUSH2 0x444 PUSH2 0x3EF JUMP JUMPDEST JUMPDEST PUSH1 0x0 PUSH2 0x453 DUP5 DUP3 DUP6 ADD PUSH2 0x41A JUMP JUMPDEST SWAP2 POP POP SWAP3 SWAP2 POP POP JUMP JUMPDEST PUSH1 0x0 DUP2 MLOAD SWAP1 POP SWAP2 SWAP1 POP JUMP JUMPDEST PUSH1 0x0 DUP3 DUP3 MSTORE PUSH1 0x20 DUP3 ADD SWAP1 POP SWAP3 SWAP2 POP POP JUMP JUMPDEST PUSH1 0x0 JUMPDEST DUP4 DUP2 LT ISZERO PUSH2 0x496 JUMPI DUP1 DUP3 ADD MLOAD DUP2 DUP5 ADD MSTORE PUSH1 0x20 DUP2 ADD SWAP1 POP PUSH2 0x47B JUMP JUMPDEST PUSH1 0x0 DUP5 DUP5 ADD MSTORE POP POP POP POP JUMP JUMPDEST PUSH1 0x0 PUSH1 0x1F NOT PUSH1 0x1F DUP4 ADD AND SWAP1 POP SWAP2 SWAP1 POP JUMP JUMPDEST PUSH1 0x0 PUSH2 0x4BE DUP3 PUSH2 0x45C JUMP JUMPDEST PUSH2 0x4C8 DUP2 DUP6 PUSH2 0x467 JUMP JUMPDEST SWAP4 POP PUSH2 0x4D8 DUP2 DUP6 PUSH1 0x20 DUP7 ADD PUSH2 0x478 JUMP JUMPDEST PUSH2 0x4E1 DUP2 PUSH2 0x4A2 JUMP JUMPDEST DUP5 ADD SWAP2 POP POP SWAP3 SWAP2 POP POP JUMP JUMPDEST PUSH1 0x0 DUP2 ISZERO ISZERO SWAP1 POP SWAP2 SWAP1 POP JUMP JUMPDEST PUSH2 0x501 DUP2 PUSH2 0x4EC JUMP JUMPDEST DUP3 MSTORE POP POP JUMP JUMPDEST PUSH1 0x0 PUSH1 0x40 DUP3 ADD SWAP1 POP DUP2 DUP2 SUB PUSH1 0x0 DUP4 ADD MSTORE PUSH2 0x521 DUP2 DUP6 PUSH2 0x4B3 JUMP JUMPDEST SWAP1 POP PUSH2 0x530 PUSH1 0x20 DUP4 ADD DUP5 PUSH2 0x4F8 JUMP JUMPDEST SWAP4 SWAP3 POP POP POP JUMP JUMPDEST PUSH1 0x0 DUP1 REVERT JUMPDEST PUSH1 0x0 DUP1 REVERT JUMPDEST PUSH32 0x4E487B7100000000000000000000000000000000000000000000000000000000 PUSH1 0x0 MSTORE PUSH1 0x41 PUSH1 0x4 MSTORE PUSH1 0x24 PUSH1 0x0 REVERT JUMPDEST PUSH2 0x579 DUP3 PUSH2 0x4A2 JUMP JUMPDEST DUP2 ADD DUP2 DUP2 LT PUSH8 0xFFFFFFFFFFFFFFFF DUP3 GT OR ISZERO PUSH2 0x598 JUMPI PUSH2 0x597 PUSH2 0x541 JUMP JUMPDEST JUMPDEST DUP1 PUSH1 0x40 MSTORE POP POP POP JUMP JUMPDEST PUSH1 0x0 PUSH2 0x5AB PUSH2 0x3E5 JUMP JUMPDEST SWAP1 POP PUSH2 0x5B7 DUP3 DUP3 PUSH2 0x570 JUMP JUMPDEST SWAP2 SWAP1 POP JUMP JUMPDEST PUSH1 0x0 PUSH8 0xFFFFFFFFFFFFFFFF DUP3 GT ISZERO PUSH2 0x5D7 JUMPI PUSH2 0x5D6 PUSH2 0x541 JUMP JUMPDEST JUMPDEST PUSH2 0x5E0 DUP3 PUSH2 0x4A2 JUMP JUMPDEST SWAP1 POP PUSH1 0x20 DUP2 ADD SWAP1 POP SWAP2 SWAP1 POP JUMP JUMPDEST DUP3 DUP2 DUP4 CALLDATACOPY PUSH1 0x0 DUP4 DUP4 ADD MSTORE POP POP POP JUMP JUMPDEST PUSH1 0x0 PUSH2 0x60F PUSH2 0x60A DUP5 PUSH2 0x5BC JUMP JUMPDEST PUSH2 0x5A1 JUMP JUMPDEST SWAP1 POP DUP3 DUP2 MSTORE PUSH1 0x20 DUP2 ADD DUP5 DUP5 DUP5 ADD GT ISZERO PUSH2 0x62B JUMPI PUSH2 0x62A PUSH2 0x53C JUMP JUMPDEST JUMPDEST PUSH2 0x636 DUP5 DUP3 DUP6 PUSH2 0x5ED JUMP JUMPDEST POP SWAP4 SWAP3 POP POP POP JUMP JUMPDEST PUSH1 0x0 DUP3 PUSH1 0x1F DUP4 ADD SLT PUSH2 0x653 JUMPI PUSH2 0x652 PUSH2 0x537 JUMP JUMPDEST JUMPDEST DUP2 CALLDATALOAD PUSH2 0x663 DUP5 DUP3 PUSH1 0x20 DUP7 ADD PUSH2 0x5FC JUMP JUMPDEST SWAP2 POP POP SWAP3 SWAP2 POP POP JUMP JUMPDEST PUSH1 0x0 PUSH1 0x20 DUP3 DUP5 SUB SLT ISZERO PUSH2 0x682 JUMPI PUSH2 0x681 PUSH2 0x3EF JUMP JUMPDEST JUMPDEST PUSH1 0x0 DUP3 ADD CALLDATALOAD PUSH8 0xFFFFFFFFFFFFFFFF DUP2 GT ISZERO PUSH2 0x6A0 JUMPI PUSH2 0x69F PUSH2 0x3F4 JUMP JUMPDEST JUMPDEST PUSH2 0x6AC DUP5 DUP3 DUP6 ADD PUSH2 0x63E JUMP JUMPDEST SWAP2 POP POP SWAP3 SWAP2 POP POP JUMP JUMPDEST PUSH1 0x0 DUP1 PUSH1 0x40 DUP4 DUP6 SUB SLT ISZERO PUSH2 0x6CC JUMPI PUSH2 0x6CB PUSH2 0x3EF JUMP JUMPDEST JUMPDEST PUSH1 0x0 PUSH2 0x6DA DUP6 DUP3 DUP7 ADD PUSH2 0x41A JUMP JUMPDEST SWAP3 POP POP PUSH1 0x20 DUP4 ADD CALLDATALOAD PUSH8 0xFFFFFFFFFFFFFFFF DUP2 GT ISZERO PUSH2 0x6FB JUMPI PUSH2 0x6FA PUSH2 0x3F4 JUMP JUMPDEST JUMPDEST PUSH2 0x707 DUP6 DUP3 DUP7 ADD PUSH2 0x63E JUMP JUMPDEST SWAP2 POP POP SWAP3 POP SWAP3 SWAP1 POP JUMP JUMPDEST PUSH32 0x4E487B7100000000000000000000000000000000000000000000000000000000 PUSH1 0x0 MSTORE PUSH1 0x32 PUSH1 0x4 MSTORE PUSH1 0x24 PUSH1 0x0 REVERT JUMPDEST PUSH32 0x4E487B7100000000000000000000000000000000000000000000000000000000 PUSH1 0x0 MSTORE PUSH1 0x22 PUSH1 0x4 MSTORE PUSH1 0x24 PUSH1 0x0 REVERT JUMPDEST PUSH1 0x0 PUSH1 0x2 DUP3 DIV SWAP1 POP PUSH1 0x1 DUP3 AND DUP1 PUSH2 0x787 JUMPI PUSH1 0x7F DUP3 AND SWAP2 POP JUMPDEST PUSH1 0x20 DUP3 LT DUP2 SUB PUSH2 0x79A JUMPI PUSH2 0x799 PUSH2 0x740 JUMP JUMPDEST JUMPDEST POP SWAP2 SWAP1 POP JUMP JUMPDEST PUSH1 0x0 DUP2 SWAP1 POP DUP2 PUSH1 0x0 MSTORE PUSH1 0x20 PUSH1 0x0 KECCAK256 SWAP1 POP SWAP2 SWAP1 POP JUMP JUMPDEST PUSH1 0x0 PUSH1 0x20 PUSH1 0x1F DUP4 ADD DIV SWAP1 POP SWAP2 SWAP1 POP JUMP JUMPDEST PUSH1 0x0 DUP3 DUP3 SHL SWAP1 POP SWAP3 SWAP2 POP POP JUMP JUMPDEST PUSH1 0x0 PUSH1 0x8 DUP4 MUL PUSH2 0x802 PUSH32 0xFFFFFFFFFFFFFFFFFFFFFFFFFFFFFFFFFFFFFFFFFFFFFFFFFFFFFFFFFFFFFFFF DUP3 PUSH2 0x7C5 JUMP JUMPDEST PUSH2 0x80C DUP7 DUP4 PUSH2 0x7C5 JUMP JUMPDEST SWAP6 POP DUP1 NOT DUP5 AND SWAP4 POP DUP1 DUP7 AND DUP5 OR SWAP3 POP POP POP SWAP4 SWAP3 POP POP POP JUMP JUMPDEST PUSH1 0x0 DUP2 SWAP1 POP SWAP2 SWAP1 POP JUMP JUMPDEST PUSH1 0x0 PUSH2 0x849 PUSH2 0x844 PUSH2 0x83F DUP5 PUSH2 0x3F9 JUMP JUMPDEST PUSH2 0x824 JUMP JUMPDEST PUSH2 0x3F9 JUMP JUMPDEST SWAP1 POP SWAP2 SWAP1 POP JUMP JUMPDEST PUSH1 0x0 DUP2 SWAP1 POP SWAP2 SWAP1 POP JUMP JUMPDEST PUSH2 0x863 DUP4 PUSH2 0x82E JUMP JUMPDEST PUSH2 0x877 PUSH2 0x86F DUP3 PUSH2 0x850 JUMP JUMPDEST DUP5 DUP5 SLOAD PUSH2 0x7D2 JUMP JUMPDEST DUP3 SSTORE POP POP POP POP JUMP JUMPDEST PUSH1 0x0 SWAP1 JUMP JUMPDEST PUSH2 0x88C PUSH2 0x87F JUMP JUMPDEST PUSH2 0x897 DUP2 DUP5 DUP5 PUSH2 0x85A JUMP JUMPDEST POP POP POP JUMP JUMPDEST JUMPDEST DUP2 DUP2 LT ISZERO PUSH2 0x8BB JUMPI PUSH2 0x8B0 PUSH1 0x0 DUP3 PUSH2 0x884 JUMP JUMPDEST PUSH1 0x1 DUP2 ADD SWAP1 POP PUSH2 0x89D JUMP JUMPDEST POP POP JUMP JUMPDEST PUSH1 0x1F DUP3 GT ISZERO PUSH2 0x900 JUMPI PUSH2 0x8D1 DUP2 PUSH2 0x7A0 JUMP JUMPDEST PUSH2 0x8DA DUP5 PUSH2 0x7B5 JUMP JUMPDEST DUP2 ADD PUSH1 0x20 DUP6 LT ISZERO PUSH2 0x8E9 JUMPI DUP2 SWAP1 POP JUMPDEST PUSH2 0x8FD PUSH2 0x8F5 DUP6 PUSH2 0x7B5 JUMP JUMPDEST DUP4 ADD DUP3 PUSH2 0x89C JUMP JUMPDEST POP POP JUMPDEST POP POP POP JUMP JUMPDEST PUSH1 0x0 DUP3 DUP3 SHR SWAP1 POP SWAP3 SWAP2 POP POP JUMP JUMPDEST PUSH1 0x0 PUSH2 0x923 PUSH1 0x0 NOT DUP5 PUSH1 0x8 MUL PUSH2 0x905 JUMP JUMPDEST NOT DUP1 DUP4 AND SWAP2 POP POP SWAP3 SWAP2 POP POP JUMP JUMPDEST PUSH1 0x0 PUSH2 0x93C DUP4 DUP4 PUSH2 0x912 JUMP JUMPDEST SWAP2 POP DUP3 PUSH1 0x2 MUL DUP3 OR SWAP1 POP SWAP3 SWAP2 POP POP JUMP JUMPDEST PUSH2 0x955 DUP3 PUSH2 0x45C JUMP JUMPDEST PUSH8 0xFFFFFFFFFFFFFFFF DUP2 GT ISZERO PUSH2 0x96E JUMPI PUSH2 0x96D PUSH2 0x541 JUMP JUMPDEST JUMPDEST PUSH2 0x978 DUP3 SLOAD PUSH2 0x76F JUMP JUMPDEST PUSH2 0x983 DUP3 DUP3 DUP6 PUSH2 0x8BF JUMP JUMPDEST PUSH1 0x0 PUSH1 0x20 SWAP1 POP PUSH1 0x1F DUP4 GT PUSH1 0x1 DUP2 EQ PUSH2 0x9B6 JUMPI PUSH1 0x0 DUP5 ISZERO PUSH2 0x9A4 JUMPI DUP3 DUP8 ADD MLOAD SWAP1 POP JUMPDEST PUSH2 0x9AE DUP6 DUP3 PUSH2 0x930 JUMP JUMPDEST DUP7 SSTORE POP PUSH2 0xA16 JUMP JUMPDEST PUSH1 0x1F NOT DUP5 AND PUSH2 0x9C4 DUP7 PUSH2 0x7A0 JUMP JUMPDEST PUSH1 0x0 JUMPDEST DUP3 DUP2 LT ISZERO PUSH2 0x9EC JUMPI DUP5 DUP10 ADD MLOAD DUP3 SSTORE PUSH1 0x1 DUP3 ADD SWAP2 POP PUSH1 0x20 DUP6 ADD SWAP5 POP PUSH1 0x20 DUP2 ADD SWAP1 POP PUSH2 0x9C7 JUMP JUMPDEST DUP7 DUP4 LT ISZERO PUSH2 0xA09 JUMPI DUP5 DUP10 ADD MLOAD PUSH2 0xA05 PUSH1 0x1F DUP10 AND DUP3 PUSH2 0x912 JUMP JUMPDEST DUP4 SSTORE POP JUMPDEST PUSH1 0x1 PUSH1 0x2 DUP9 MUL ADD DUP9 SSTORE POP POP POP JUMPDEST POP POP POP POP POP POP JUMP INVALID LOG2 PUSH5 0x6970667358 0x22 SLT KECCAK256 INVALID 0xAE 0xB9 0xD2 JUMPI 0xB7 POP 0xF8 MUL PUSH32 0x773DB751EF980C9B396CF2A8C760CE589D54A60B058464736F6C634300081100 CALLER "
				},
				"gasEstimates": {
					"creation": {
						"codeDepositCost": "528800",
						"executionCost": "562",
						"totalCost": "529362"
					},
					"external": {
						"createTodo(string)": "infinite",
						"todos(uint256)": "infinite",
						"toggleCompleted(uint256)": "31184",
						"update(uint256,string)": "infinite"
					}
				},
				"methodIdentifiers": {
					"createTodo(string)": "e34f1221",
					"todos(uint256)": "bc8bc2b4",
					"toggleCompleted(uint256)": "455f5024",
					"update(uint256,string)": "f745630f"
				}
			},
			"storageLayout": {
				"storage": [
					{
						"astId": 10,
						"contract": "scripts/advancedsolidity.sol:TodoList",
						"label": "todos",
						"offset": 0,
						"slot": "0",
						"type": "t_array(t_struct(TodoItem)6_storage)dyn_storage"
					}
				],
				"types": {
					"t_array(t_struct(TodoItem)6_storage)dyn_storage": {
						"base": "t_struct(TodoItem)6_storage",
						"encoding": "dynamic_array",
						"label": "struct TodoList.TodoItem[]",
						"numberOfBytes": "32"
					},
					"t_bool": {
						"encoding": "inplace",
						"label": "bool",
						"numberOfBytes": "1"
					},
					"t_string_storage": {
						"encoding": "bytes",
						"label": "string",
						"numberOfBytes": "32"
					},
					"t_struct(TodoItem)6_storage": {
						"encoding": "inplace",
						"label": "struct TodoList.TodoItem",
						"members": [
							{
								"astId": 3,
								"contract": "scripts/advancedsolidity.sol:TodoList",
								"label": "text",
								"offset": 0,
								"slot": "0",
								"type": "t_string_storage"
							},
							{
								"astId": 5,
								"contract": "scripts/advancedsolidity.sol:TodoList",
								"label": "completed",
								"offset": 0,
								"slot": "1",
								"type": "t_bool"
							}
						],
						"numberOfBytes": "64"
					}
				}
			},
			"userdoc": {
				"kind": "user",
				"methods": {},
				"version": 1
			}
		}
	}
}